:020000040800F2
:100000008804002001010008090100080B01000814
:100010000D0100080F010008110100080000000098
:1000200000000000000000000000000013010008B4
:10003000150100080000000017010008C1160008A3
:100040001B0100081B0100081B0100081B01000820
:100050001B0100081B0100081B010008890800089B
:100060001B0100081B0100081B0100089506000881
:100070001B0100081B0100081B0100081B010008F0
:100080001B0100081B0100081B0100081B010008E0
:100090001B0100081B0100081B0100081B010008D0
:1000A0001B0100081B0100081B0100081B010008C0
:1000B0001B0100081B0100081B0100081B010008B0
:1000C0001B0100081B0100081B0100081B010008A0
:1000D0001B0100081B0100081B0100081B01000890
:1000E0006D0700081B0100081B010008DFF80CD099
:1000F00000F02EF800480047C91D000888040020C1
:100100000648804706480047FEE7FEE7FEE7FEE7B1
:10011000FEE7FEE7FEE7FEE7FEE7FEE70917000859
:10012000ED00000830B50B460146002020220124D6
:1001300009E021FA02F59D4205D303FA02F5491BB5
:1001400004FA02F52844151EA2F10102F1DC30BDCB
:10015000064C074D06E0E06840F0010394E8070014
:1001600098471034AC42F6D3FFF7C4FF082A0008C2
:10017000282A000810B54248007850B900204149AB
:1001800008604149086041490860414908603C49AC
:100190000870002000F0FEFC4FF47A7100FB01F4BF
:1001A000E01704EB1050001300F57A703549096828
:1001B000084434490860012000F0ECFC4FF4FA7167
:1001C00000FB01F4E01704EB1050001300F57A7007
:1001D0002D49096808442C490860022000F0DAFC27
:1001E0004FF47A7100FB01F4E01704EB1050001398
:1001F00000F57A70254909680844244908600320FD
:1002000000F0C8FC4FF47A7100FB01F4E01704EB36
:100210001050001300F57A701D49096808441C4904
:10022000086017480078401C154908700846007897
:100230003C2823DB13480068097890FBF1F015494E
:100240000880114800680E49097890FBF1F01149C7
:1002500048800E4800680A49097890FBF1F00D4982
:1002600088800B4800680649097890FBF1F009493D
:10027000C8800020084908700149087010BD0000BE
:100280001E00002020000020240000202800002064
:100290002C000020160000200C00002021B18268F4
:1002A00042F00102826003E0826822F00102826073
:1002B000704721B1826842F48072826003E08268F4
:1002C00022F480728260704700B591B00121084627
:1002D00000F0DAFF04200890002007900F904B48B0
:1002E00006904FF480600C9080200A9020200D90A2
:1002F0004748059080150B90002009904FF48050DE
:100300000E9005A9434800F012FA0122022141484B
:1003100000F004FA0B20002809DB00F01F02012185
:1003200091404209920002F1E022C2F8001100BFA0
:100330000121384800F0D0F901214FF4017000F09C
:10034000C3FF0F20ADF8400000208DF8430010A936
:10035000314800F08FFB00208DF8050003904FF42A
:10036000202002900020009004208DF81000012031
:100370008DF80400694626484C3800F071F80121D8
:1003800023484C38FFF78AFF012121484C38FFF7FA
:1003900090FF4FF4404000F06BFF07230122002143
:1003A0001B484C3800F084F807230222012118482A
:1003B0004C3800F07DF807230322022114484C3802
:1003C00000F076F807230422032111484C3800F08E
:1003D0006FF80F484C3800F0C7F800BF0C484C3895
:1003E00000F027F80028F9D109484C3800F0CCF883
:1003F00000BF07484C3800F01CF80028F9D1012153
:1004000003484C3800F00AF811B000BD0E0000207F
:100410004C240140080002400008014021B18268DC
:1004200042F48012826003E0826822F480128260CB
:100430007047014600208A6802F004020AB10120D8
:1004400000E0002070470146C86C80B27047024649
:10045000002013680B400BB1012000E00020704722
:1004600030B502460020002350680F4C20400D7923
:100470000C6844EA05242043506090680B4C2040EF
:10048000D1E902542C434D7944EA4504204390605D
:10049000D06A20F470000C7C641EE4B2234340EA6E
:1004A0000350D06230BD0000FFFEF0FFFDF7F1FF0A
:1004B000F0B504460D4600200021092D11DDE0684D
:1004C000A5F10A0606EB4607072606FA07F1884358
:1004D000A5F10A0606EB460603FA06F10843E060BA
:1004E0000CE0206905EB4507072606FA07F188436B
:1004F00005EB450603FA06F108432061072A0FDAE7
:10050000606B561E06EB86071F2606FA07F1884326
:10051000561E06EB860605FA06F10843606322E0E4
:100520000D2A0FDA206BD61F06EB86071F2606FA68
:1005300007F18843D61F06EB860605FA06F1084345
:10054000206310E0E06AA2F10D0606EB86071F2685
:1005500006FA07F18843A2F10D0606EB860605FAB6
:1005600006F10843E062F0BD816841F00801816056
:10057000704721B1826842F4A002826003E0826881
:1005800022F4A00282607047816841F0040181601A
:10059000704700000EB50121092000F095FE4FF4D0
:1005A0007040ADF8080004208DF80B0003208DF892
:1005B0000A0002A9364800F05DFA4FF4005000909E
:1005C00000208DF804000C208DF8050001208DF826
:1005D0000600684600F0E4F94FF4805000900020D7
:1005E0008DF804000C208DF8050001208DF8060020
:1005F000684600F0D5F94FF48040009000208DF857
:1006000004000C208DF8050001208DF806006846D6
:1006100000F0C6F94FF40040009000208DF804006F
:100620000C208DF8050001208DF80600684600F0CA
:10063000B7F90C21012000F0FDF90D21012000F097
:10064000F9F90E21012000F0F5F90F21012000F049
:10065000F1F94FF4805000F089F94FF4005000F0A8
:1006600085F94FF4804000F081F94FF4004000F02C
:100670007DF92820002809DB00F01F0201219140AC
:100680004209920002F1E022C2F8001100BF0EBD43
:10069000000C014010B5022000F02AF8012809D111
:1006A00001F092FD0448007808B1FFF763FD0220D5
:1006B00000F004F810BD00000C00002000F0805194
:1006C00011B10349086001E0024948607047000029
:1006D000040402400000024021B1026842F001021D
:1006E000026004E002684FF6FE731A400260704731
:1006F00001460020002201F0805313B1054B1A6817
:1007000001E0054B1A6802EA01030BB1012000E089
:100710000020704700040240000002401AB1036844
:100720000B43036002E003688B430360704710B51E
:100730000022026847F6F0739A430C6A8B682343E1
:100740000C6923434C6923438C692343CC692343BD
:100750004C6A23438C6A23431A430260CB6843608C
:100760000B6883604B68C36010BD000010B54FF488
:10077000804000F001F901281BD14148006800F4D5
:10078000804088B90A2001F0DDFA3D48006800F495
:10079000804048B900BF3A48006800F48040002813
:1007A000F9D04320374988704FF4804000F0DEF8DC
:1007B00064E04FF4004000F0DFF801281BD130481E
:1007C000006800F4004088B90A2001F0BBFA2C4808
:1007D000006800F4004048B900BF2948006800F4F0
:1007E00000400028F9D04420264988704FF400408A
:1007F00000F0BCF842E04FF4005000F0BDF80128D2
:100800001BD11F48006800F4005088B90A2001F08D
:1008100099FA1B48006800F4005048B900BF184816
:10082000006800F400500028F9D045201549887070
:100830004FF4005000F09AF820E04FF4805000F0A0
:100840009BF801281AD10E48006800F4805088B93E
:100850000A2001F077FA0A48006800F4805048B98D
:1008600000BF0748006800F480500028F9D04520F8
:10087000044988704FF4805000F078F810BD0000F3
:10088000080C01400300002010B53048006840F01B
:1008900001002E490860072000F062FE2C49087014
:1008A0000846007800F02000C0B100F087FD29481C
:1008B000007800F0010020B14FF4005000F0D8F9AA
:1008C00003E04FF4005000F0DDF92021272000F074
:1008D00063FEFF21E12000F05FFE33E01C4800785A
:1008E00000F0400068B101201B4908701B4800F06F
:1008F000E5FA01201A4908704021272000F04CFE3B
:1009000020E01348007800F01000D8B115480188A5
:100910000088401C134A1080642905DD012012491B
:10092000087000200C4908704FF4005000F096F950
:1009300000F044FD1021272000F02EFEFF21E120D1
:1009400000F02AFE022000F011F810BD140C014046
:1009500052000020300000205700002053000020EB
:100960005600002042000020580000200149086085
:100970007047000014040140014600200022074B8C
:100980001B6803EA0102054B14331B680B4013B1CB
:100990000AB1012000E0002070470000000401407F
:1009A000002123498279002A3AD00A461268036856
:1009B0009A430B461A600A1D126803689A430B1D7E
:1009C0001A60027911440A6803681A430A60184AD7
:1009D0000832126803689A43154B08331A601A1DCF
:1009E000126803689A43124B0C331A604279102A3A
:1009F0000ED11A1F126803681A430D4B08331A6090
:100A00001A1D126803681A43094B0C331A600DE073
:100A10000749427911440A6803681A430A6005E0ED
:100A2000027911440A6803689A430A60704700001B
:100A30000004014030B500228B071C0F0F2303FA7E
:100A400004F20B4B8C1053F824309343084C8D1058
:100A500044F8253023468C1053F824308C07240F9B
:100A600000FA04F42343024C8D1044F8253030BDC5
:100A7000080001402DE9F041024600250026002033
:100A800000230024002791F803C00CF00F0591F813
:100A900003C00CF0100CBCF1000F03D091F802C0A1
:100AA0004CEA050591F800C0BCF1000F31D0146884
:100AB00000202BE04FF0010C0CFA00F3B1F800C05D
:100AC0000CEA03069E4220D183004FF00F0C0CFA73
:100AD00003F7BC4305FA03FC4CEA040491F803C095
:100AE000BCF1280F06D14FF0010C0CFA00FCC2F843
:100AF00014C00AE091F803C0BCF1480F05D14FF0D3
:100B0000010C0CFA00FCC2F810C0401C0828D1D31C
:100B10001460B1F800C0BCF1FF0F34DD5468002050
:100B20002EE000F1080C4FF0010808FA0CF3B1F8C0
:100B300000C00CEA03069E4221D183004FF00F0C47
:100B40000CFA03F7BC4305FA03FC4CEA040491F8E1
:100B500003C0BCF1280F05D100F1080C08FA0CF80D
:100B6000C2F8148091F803C0BCF1480F07D100F11E
:100B7000080C4FF0010808FA0CF8C2F81080401C6D
:100B80000828CED35460BDE8F0814161704701610F
:100B90007047000010B5044607230122214609488A
:100BA000FFF786FC01210748FFF7E3FC00BF0221A5
:100BB0000448FFF74CFC0028F9D00248FFF743FC3B
:100BC00010BD00000024014010B540210748FFF788
:100BD000DEFF80210548FFF7DAFF80210348FFF799
:100BE000D4FF40210148FFF7D0FF10BD000C0140A9
:100BF00010B540210548FFF7CAFF80210348FFF7E1
:100C0000C4FF80210148FFF7C2FF10BD000C014066
:100C100010B540210348FFF7BAFF40210148FFF714
:100C2000B4FF10BD000C014008B50121102000F0F8
:100C30004BFB4FF40050ADF8000010208DF803007E
:100C400003208DF8020069460348FFF713FF4FF4B5
:100C5000005000F003F808BD0010014010B5044634
:100C600021460248FFF793FF10BD00000008014035
:100C700010B5044621460248FFF787FF10BD00006B
:100C800000080140024909684140014A116070476B
:100C90000C0801400FB519A103C9CDE902010020DC
:100CA000009001901749086001201749C1F8900190
:100CB000002016490860052202A9302000F0C8F87B
:100CC00005226946102000F023F89DF80000112845
:100CD00012D19DF8010022280ED19DF80200332880
:100CE0000AD19DF80300442806D19DF80400552838
:100CF00002D1002004B000BD0120FBE711223344E3
:100D000055000000940121420000214280812142CF
:100D10002DE9F04107460D46164600200A490860B5
:100D2000384600F0D1FB8046002405E0FF2000F0AB
:100D3000CBFB2855601CC4B2B442F7DB012002494A
:100D400008604046BDE8F0819001214230B504467C
:100D5000002007490860204600F0B6FBFF2000F0A5
:100D6000B3FB054601200349C1F89001284630BD78
:100D7000900121420000214230B50546002014496F
:100D8000086003222946A02000F062F801201149E2
:100D9000C1F8800100BF0E487C3800680128FAD0F5
:100DA0000720FFF7D3FF04462146272000F06EF806
:100DB00004F0100028B1FF21E12000F067F81020B6
:100DC00030BD04F0200008B12020F9E7FF20F7E74C
:100DD000808121420080214200B50020184908602E
:100DE0000321312000F052F8FF21E22000F04EF8FC
:100DF00005221449302000F02BF8052212492A2040
:100E000000F026F80121212000F040F801212220E5
:100E100000F03CF82121242000F038F8372125206B
:100E200000F034F82621084600F030F80F21202089
:100E300000F02CF801200549C1F8800100BD000038
:100E400080812142480000204D0000200080214286
:100E50002DE9F04107460C46154600200A49086076
:100E6000384600F031FB8046002605E014F8010BFF
:100E700000F02AFB701CC6B2AE42F7DB012002492B
:100E800008604046BDE8F0819001214270B50546FA
:100E90000C46002007490860284600F015FB06466E
:100EA000204600F011FB01200349C1F890013046B3
:100EB00070BD0000900121420000214210B504469F
:100EC0000B48006840F001000949086003222146F0
:100ED000612000F01DFBFF21E22000F05DFB0448D3
:100EE000001F006840F001000149091F086010BDA3
:100EF000140C014010B500221146052000F025F821
:100F0000044621464FF0FF3000F04EFE0022012142
:100F1000052000F01AF804462146072000F044FEA0
:100F200001221146052000F010F8044621460B204E
:100F300000F03AFE02221146052000F006F80446B1
:100F40002146282000F030FE10BDF0B503460C46C7
:100F500003F00701C1F10700042801D9042001E0D2
:100F6000C1F107000646081D072801D2002000E055
:100F7000C81E05460120B040401E2040A840012761
:100F8000AF407F1E17403843F0BD70B5002418E015
:100F900004F1B000002100F05FF90021084600F0E4
:100FA0005BF90021102000F057F9002505E0012130
:100FB000002000F051F9681CC5B2802DF7DB601CE1
:100FC000C4B2082CE4DB70BD08B50121082000F094
:100FD0007BF9C020ADF8000010208DF8030003203D
:100FE0008DF8020069463B48FFF744FDC0213948AF
:100FF000FFF7CDFD642000F0A5FE0021AE2000F03B
:101000002BF90021084600F027F90021102000F0FC
:1010100023F90021402000F01FF90021B02000F04A
:101020001BF90021812000F017F90021FF2000F0BA
:1010300013F90021A12000F00FF90021A62000F0F3
:101040000BF90021A82000F007F900213F2000F053
:1010500003F90021C82000F0FFF80021D32000F0A0
:10106000FBF80021084600F0F7F80021D52000F039
:10107000F3F80021802000F0EFF80021D82000F0E4
:10108000EBF80021052000F0E7F80021D92000F05E
:10109000E3F80021F12000F0DFF80021DA2000F071
:1010A000DBF80021122000F0D7F80021DB2000F04F
:1010B000D3F80021302000F0CFF800218D2000F07F
:1010C000CBF80021142000F0C7F80021AF2000F079
:1010D000C3F808BD000C014070B504460D4605F18B
:1010E000B000002100F0B8F8102141EA14100021EE
:1010F00000F0B2F804F00F00002100F0ADF870BD70
:101100002DE9F04707460E469046994600250024F3
:10111000A8F12000C5B27F2F02DD0027B01CC6B2A7
:10112000B9F1080F24D131463846FFF7D5FF002426
:1011300008E004EB0511194A505C012100F08CF81D
:10114000601CC4B2082CF4DB701CC1B23846FFF737
:10115000C3FF002409E004EB051108310F4A505C7D
:10116000012100F079F8601CC4B2082CF3DB12E016
:1011700031463846FFF7B0FF00240AE005EB450191
:10118000074A02EB4101085D012100F065F8601C8F
:10119000C4B2062CF2DBBDE8F0870000182400087A
:1011A000F02100082DE9F05F06468A4691461D466B
:1011B0000A9F4FF0000B00242DE0281B401EC1B2F7
:1011C0000A2000F0F5FFB9FBF0F00A21B0FBF1F2C4
:1011D00001FB1208BBF1000F10D1681EA0420DDD0B
:1011E000B8F1000F08D107FB0461C8B23B462022CA
:1011F0005146FFF785FF0CE04FF0010B08F130017D
:10120000CAB207FB0461C8B23B465146FFF778FFFC
:1012100000BF601CC4B2AC42CFDBBDE8F09F2DE93B
:10122000F04104460F461546984600260FE0AA5D99
:10123000434639462046FFF763FF04EB0800C4B27B
:10124000782C02DD0024B81CC7B2701CC6B2A85DA1
:101250000028ECD1BDE8F08170B504460D461DB103
:10126000E0B200F07BFC02E0E0B200F061FC70BD97
:1012700001460020034A506820F440400843506073
:10128000704700000010024029B1064A526902432B
:10129000044B5A6104E0034A52698243014B5A618C
:1012A000704700000010024029B1064AD26902438B
:1012B000044BDA6104E0034AD2698243014BDA61EC
:1012C000704700000010024029B1064A92690243AB
:1012D000044B9A6104E0034A92698243014B9A618C
:1012E000704700000010024030B5002100220024A9
:1012F00000232D4D6D6805F00C0121B1042905D0A6
:10130000082923D105E0294D056022E0274D05601D
:101310001FE0254D6D6805F47012234D6D6805F4CE
:101320008034022505EB92421CB9214D55430560DE
:101330000BE01D4D6D6805F400351DB11C4D554386
:10134000056002E0194D5543056002E0174D056048
:1013500000BF00BF144D6D6805F0F0010909154D7F
:101360006B5C0568DD4045600F4D6D6805F4E0611C
:10137000090A104D6B5C4568DD4085600A4D6D685B
:1013800005F46051C90A0B4D6B5C4568DD40C560D2
:10139000054D6D6805F44041890B074D6B5CC568D0
:1013A000B5FBF3F5056130BD0010024000127A0074
:1013B00000093D005C0000206C00002010B50B48C7
:1013C000006840F00100094908600F21202000F06A
:1013D000E3F87E21272000F0DFF80448001F0068B2
:1013E00040F001000149091F086010BD140C0140C4
:1013F00070B5044600200F4908600E212020FFF739
:1014000045FD01200C49C1F880010F2000F0BCFC13
:101410002046FFF7B1FC05460020064908600F2171
:101420002020FFF733FD01200349C1F88001284641
:1014300070BD0000808121420080214208B5012159
:101440000C20FFF741FF0120ADF8000010208DF8BF
:10145000030003208DF8020069461948FFF70AFBD4
:101460001020ADF8000069461648FFF703FB202066
:10147000ADF8000069461348FFF7FCFA8020ADF88C
:10148000000069460F48FFF7F5FA0220ADF80000AA
:1014900048208DF8030003208DF8020069460848B3
:1014A000FFF7E8FA4020ADF8000048208DF803006F
:1014B00003208DF8020069460248FFF7DBFA08BDF9
:1014C000000C014000080140002119E000F08002FA
:1014D000802A03D101220C4B1A6002E000220A4B41
:1014E0001A604206100E0122074B083B1A60074A99
:1014F000D2F818210243D0B200221A604A1CD1B29D
:101500000829E3DB704700009C01214200002142D2
:1015100070B506460C4615460F48006840F01000AE
:101520000D4908603046FFF7CFFF0C49087006E010
:101530000020FFF7C9FF2070641C681EC5B2002D93
:10154000F6D10548001F006840F010000249091F4D
:1015500008600248007870BD140801405B0000205C
:1015600070B504460B48006840F010000949086057
:101570002046FFF7A9FF0020FFF7A6FF0546054814
:10158000001F006840F010000249091F086028464B
:1015900070BD00001408014070B505460C460C48AB
:1015A000006840F010000A4908602846FFF78CFFE9
:1015B000084908702046FFF787FF0548001F0068AC
:1015C00040F010000249091F08600248007870BD11
:1015D000140801405B00002010B500F001F810BDB8
:1015E0000CB50020019000903348006840F4803032
:1015F0003149086000BF3048006800F400300090B6
:101600000198401C0190009818B90198B0F5A06F9E
:10161000F1D12948006800F4003010B10120009099
:1016200001E0002000900098012843D12348006881
:1016300040F01000214908600846006820F00300CF
:1016400008600846006840F0020008601A484068D8
:10165000194948600846406848600846406840F4B8
:10166000806048600846406820F47C104860084666
:10167000406840F4E81048600846006840F0807018
:10168000086000BF0C48006800F000700028F9D026
:101690000948406820F00300074948600846406850
:1016A00040F00200486000BF0348406800F00C00B2
:1016B0000828F9D10CBD00000010024000200240B3
:1016C0000448006820B103480068401E01490860D2
:1016D0007047000008000020094800680949B0FB75
:1016E000F1F0401E4FF0E0214861002088610620A3
:1016F00008610846006920F0010008617047000099
:101700007000002040420F0010B51348006840F000
:1017100001001149086008464068104908400E4918
:101720004860084600680E4908400B4908600846B2
:10173000006820F4802008600846406820F4FE001D
:1017400048604FF41F008860FFF746FF4FF00060CD
:101750000449086010BD0000001002400000FFF8BE
:10176000FFFFF6FE08ED00E021B1028842F08002A2
:10177000028004E002884FF67F731A4002807047AF
:1017800021B1028842F00102028004E002884FF693
:10179000FE731A400280704770B5002200230024B7
:1017A000058C4EF6FF7635400584038C8488828B49
:1017B00048F6FF752A404FF6FF452A400D884FF640
:1017C000FF7606EA05252A434DF6FF752B400D8965
:1017D00006EA05352B434D8806EA05352B430B4DAC
:1017E000A84202D00A4DA84208D14BF6FF752C4002
:1017F0008D894FF6FF7606EA85152C438480828317
:10180000CD88A0F84050038470BD0000002C01403A
:10181000003401400A460021818B4FF2FF731940CA
:101820004FF6FF7303EA02231943818370470000D8
:1018300030B587B042F210756C1001210420FFF71B
:1018400033FD0020ADF8160040F2CF20ADF81000B7
:101850000020ADF81200ADF8145004A90F4800F0B4
:101860001FF86020ADF800000020ADF8080001204E
:10187000ADF80200ADF8064069460848FFF78CFF56
:1018800001210648FFF770FF08210448FFF7C2FF57
:1018900001210248FFF774FF07B030BD0008004087
:1018A000002202881D4B98420ED01D4B98420BD04F
:1018B000B0F1804F08D01B4B984205D01A4B98428C
:1018C00002D01A4B984204D14FF68F731A404B88BE
:1018D0001A43174B984207D0164B984204D04FF644
:1018E000FF431A40CB881A4302808B8883850B887C
:1018F00003850A4B98420BD0094B984208D00E4BF7
:10190000984205D00D4B984202D00D4B984201D120
:101910000B7A03860123838270470000002C01406C
:10192000003401400004004000080040000C00406A
:1019300000100040001400400040014000440140FD
:101940000048014021B1828942F40052828104E0C2
:1019500082894DF6FF731A408281704700B585B0C9
:1019600001210420FFF7B0FC01218803FFF7ACFC44
:101970004FF40070ADF8100018208DF8130003200C
:101980008DF8120004A91448FFF774F84FF4806032
:10199000ADF8100004208DF8130004A90E48FFF7DD
:1019A00069F84FF4E13000900020ADF80C000C20F5
:1019B000ADF80A000020ADF80800ADF80600ADF85B
:1019C00004006946054800F019F801210348FFF7B3
:1019D000B9FF05B000BD000000080140003801401B
:1019E00002460020B1F5007F00D100BF13880B40F4
:1019F0000BB1012000E00020704700002DE9F04706
:101A000086B005460E460024A24600BFA146002728
:101A1000B08900B100BF2F462C8A4CF6FF700440FD
:101A2000F08804432C82AC894EF6F3100440B08851
:101A300031890843718908430443AC81AC8A4FF66D
:101A4000FF400440B0890443AC8201A8FFF74CFC7E
:101A50001F48874202D1DDF810A001E0DDF80CA09C
:101A6000A88900F4004040B10AEBCA0000EB0A105C
:101A700031684900B0FBF1F807E00AEBCA0000EB5F
:101A80000A1031688900B0FBF1F86420B8FBF0F06F
:101A900004012009642101FB1089A88900F4004099
:101AA00040B1322000EBC900B0FBF1F000F00700BC
:101AB000044308E0322000EB09106421B0FBF1F090
:101AC00000F00F0004432C8106B0BDE8F087000051
:101AD00000380140C1F30802828070472DE9F041CF
:101AE00005462C4640211148FFF74FF8002619E023
:101AF000274607F08007802F04D180210B48FFF78D
:101B000046F803E080210948FFF73FF86006040E1D
:101B100040210648FFF73BF840210448FFF735F81D
:101B2000701CC6B2082EE3DBBDE8F081000C01405A
:101B300010B50446FFF748F87820FFF7CFFFFFF70E
:101B400067F80020FFF7CAFFFFF762F82046FFF7AB
:101B5000C5FFFFF75DF8FFF74BF810BD10B5044661
:101B6000FFF732F87820FFF7B9FFFFF751F8402070
:101B7000FFF7B4FFFFF74CF82046FFF7AFFFFFF782
:101B800047F8FFF735F810BD0FB4054B10B503A9A2
:101B9000044A029800F02CF810BC5DF814FB000019
:101BA000A51D00088400002010B5002804DB0A07EA
:101BB000130E054A135406E00A07140E034A00F0F8
:101BC0000F031B1FD45410BD00E400E018ED00E02B
:101BD00002E008C8121F08C1002AFAD170477047F6
:101BE000002001E001C1121F002AFBD17047000054
:101BF0002DE9FF4F89B09B460446002506E02528C5
:101C00000BD05A460B999047641C6D1C2078002815
:101C1000F5D10DB02846BDE8F08F0027B846012267
:101C2000474900E0074314F8013F203B02FA03F064
:101C30000842F7D120782E2819D114F8010F47F067
:101C400004072A280ED06FF02F022078A0F130016F
:101C500009290CD808EB880102EB410100EB0108CF
:101C6000641CF2E70A98641C50F8048B0A902078F0
:101C70000028CED0642808D0692806D075281ED048
:101C80005A460B9990476D1C58E00A994FF00A0983
:101C900001C90A91002802DA40422D2102E03905EB
:101CA00004D52B218DF82010012103E0F90704D081
:101CB0002021F7E78A4608AE0DE00021FAE70A99ED
:101CC0004FF00A0901C90A91F7E74946FEF72AFAD7
:101CD000303106F8011D0028F7D1ADEB060000F108
:101CE0002009780701D44FF00108C84502DDA8EBB0
:101CF000090000E000208046002706E008A85A46B8
:101D0000C05D0B9990476D1C7F1C5745F6DB04E0C6
:101D100030205A460B9990476D1CB8F10001A8F18C
:101D20000108F5DC05E016F8010B5A460B999047BF
:101D30006D1CB9F10001A9F10109F4DC641C65E72F
:101D40000928010000B970474FF47A7141430D4AE8
:101D5000116000214FF0E02291611146096941F0C4
:101D60000101116100BF074909680029FBD14FF04B
:101D7000E021096921F001014FF0E022116100BF6B
:101D8000E1E7000008000020002107E0642201E0F4
:101D9000531EDAB2002AFBDC4B1CD9B28142F5DCBF
:101DA0007047000070B504460D46E1B20548FFF7E4
:101DB00091FE00BF80210348FFF712FE0028F9D0F2
:101DC000204670BD0038014008B54220E4498870C3
:101DD000FFF7C4FDE3A0FFF7D7FEFFF77DFCFFF799
:101DE000F3F8FFF7D2F8FFF785F8FEF7D3FBFEF71D
:101DF0001BFF4FF40050FEF73BFFFFF71FFBFEF702
:101E0000EBFF4021DC48FEF7C2FE0221DB48FEF773
:101E1000BEFEFFF70DFDFEF757FA0623D8A20721F5
:101E20000020FFF7FCF90623D7A207214020FFF787
:101E3000F6F9FEF72FFF38B9FEF7CEFF4FF4005149
:101E4000D348FEF7A4FE11E00FE04FF40051D04854
:101E5000FEF79DFE6420FFF775FF4FF40051CC485C
:101E6000FEF793FE6420FFF76DFFEEE70623C9A29D
:101E700005210020FFF7D3F90623C8A20521402041
:101E8000FFF7CDF96AE1C74909884FF47A7201FB7F
:101E900002F0C11700EB1151091301F57A71C24A22
:101EA0001288891A01F2DC51C04A1180BD49498863
:101EB0004FF47A7201FB02F0C11700EB11510913C4
:101EC000BA4A5180B74989884FF47A7201FB02F00F
:101ED000C11700EB1151091301F57A71B24A9288CA
:101EE000891A01F2DC51B14A9180AE49C9884FF498
:101EF0007A7201FB02F0C11700EB1151091301F5D1
:101F00007A71A94AD288891A01F2DC51A74AD18094
:101F10000620009010468288042307212020FFF726
:101F200041F906200090A148C288042307216020BF
:101F3000FFF738F9062000909C4802880423052109
:101F40002020FFF72FF906200090984842880423AC
:101F500005216020FFF726F99449C98840F67A5296
:101F600091420FDD91498988A1F6B830002801DB44
:101F7000014600E04142B1F5AF7F03DA31207849F4
:101F800008705CE08949C98840F6F61291420FDA80
:101F900086498988A1F6B830002801DB014600E0B7
:101FA0004142B1F5AF7F03DA32206D49087046E057
:101FB0007E49898840F6F61291420FDA7B49C9883A
:101FC000A1F6B830002801DB014600E04142B1F53E
:101FD000AF7F03DA33206249087030E073498988A3
:101FE00040F67A5291420FDD7049C988A1F6B830A7
:101FF000002801DB014600E04142B1F5AF7F03DA82
:102000003420574908701AE0684AD288A2F6B831DD
:10201000002901DB0A4600E04A42B2F5AF7F0EDA42
:10202000624A9288A2F6B830002801DB024600E03E
:102030004242B2F5AF7F02DA3020494908705B496D
:10204000498840F2B63291420FDD58490988A1F61D
:10205000B830002801DB014600E04142B1F5AF7F16
:1020600003DA37203E4948705AE0504949883229FE
:102070000FDA4E490988A1F6B830002801DB014685
:1020800000E04142B1F5AF7F03DA382034494870AF
:1020900046E04649098840F6F61291420FDA434974
:1020A0004988A1F5FA70002801DB014600E04142B1
:1020B000B1F5AF7F03DA35202949487030E03B495C
:1020C000098840F67A5291420FDD38494988A1F5D6
:1020D000FA70002801DB014600E04142B1F5AF7F14
:1020E00003DA36201E4948701AE0304A1288A2F6F8
:1020F000B831002901DB0A4600E04A42B2F5AF7F61
:102100000EDA2A4A5288A2F5FA70002801DB02464C
:1021100000E04242B2F5AF7F02DA41201049487038
:102120000F480278062300212020FEF7E9FF0C4823
:102130004278062300214020FEF7E2FF084882781B
:10214000062300216020FEF7DBFF0548FFF750F96A
:102150004220034988706420FFF7F4FD93E60000F5
:1021600003000020757361727420697320726561C9
:1021700064790D0A0000000000080140000C0140D5
:10218000414443333A200000414443343A200000A4
:1021900000100140414443313A20000041444332A1
:1021A0003A2000000E00002016000020360000201B
:1021B00010B50246012000E050430B00A1F10104DC
:1021C000E1B2F9D110BD00000748808806280ADA7C
:1021D0000548C088062806DA03484088062802DA3F
:1021E00001200249087070470E0000200C000020FA
:1021F0000000000000000000002F000000000700A9
:10220000070000147F147F1400242A7F2A12006222
:1022100064081323003649552250000005030000CE
:1022200000001C224100000041221C000014083E56
:1022300008140008083E0808000000A0600000081C
:102240000808080800006060000000201008040270
:10225000003E5149453E0000427F4000004261512E
:102260004946002141454B31001814127F100027C8
:1022700045454539003C4A4949300001710905038B
:1022800000364949493600064949291E00003636BC
:10229000000000005636000000081422410000141F
:1022A00014141414000041221408000201510906FC
:1022B00000324959513E007C1211127C007F49497D
:1022C0004936003E41414122007F4141221C007FAE
:1022D00049494941007F09090901003E4149497ABC
:1022E000007F0808087F0000417F41000020404136
:1022F0003F01007F08142241007F40404040007FA2
:10230000020C027F007F0408107F003E4141413EE5
:10231000007F09090906003E4151215E007F09192D
:1023200029460046494949310001017F0101003F2A
:102330004040403F001F2040201F003F4038403FAA
:10234000006314081463000708700807006151490E
:10235000454300007F41410000552A552A550000A1
:1023600041417F000004020102040040404040401F
:10237000000001020400002054545478007F4844B7
:10238000443800384444442000384444487F0038EE
:102390005454541800087E0901020018A4A4A47C17
:1023A000007F080404780000447D400000408084E1
:1023B0007D00007F102844000000417F4000007C29
:1023C00004180478007C0804047800384444443835
:1023D00000FC242424180018242418FC007C080481
:1023E000040800485454542000043F444020003C5A
:1023F0004040207C001C2040201C003C4030403CE1
:10240000004428102844001CA0A0A07C0044645470
:102410004C441414141414140000000000000000B4
:102420000000000000000000000000F800000000B4
:10243000000000333000000000100C06100C0600F5
:10244000000000000000000040C07840C07840005C
:10245000043F04043F040400007088FC08300000BE
:10246000001820FF211E0000F008F000E018000016
:1024700000211C031E211E0000F0088870000000CF
:102480001E2123241927211010160E000000000021
:102490000000000000000000000000E0180402003E
:1024A000000000071820400000020418E0000000AF
:1024B0000040201807000000404080F080404000AD
:1024C0000202010F01020200000000F00000000003
:1024D0000101011F010101000000000000000000D7
:1024E00080B070000000000000000000000000004C
:1024F00000010101010101010000000000000000D5
:10250000003030000000000000000000806018046F
:10251000006018060100000000E010080810E0004C
:10252000000F102020100F00001010F80000000015
:102530000020203F2020000000700808088870005C
:1025400000302824222130000030088888483000DC
:102550000018202020110E000000C02010F80000FC
:1025600000070424243F240000F808888808080095
:102570000019212020110E0000E0108888180000AA
:10258000000F112020110E0000380808C83808007C
:102590000000003F000000000070880808887000FC
:1025A000001C222121221C0000E010080810E0007D
:1025B0000000312222110F00000000C0C000000006
:1025C000000000303000000000000080000000002B
:1025D0000000806000000000000080402010080023
:1025E00000010204081020004040404040404000EC
:1025F00004040404040404000008102040800000C7
:102600000020100804020100007048080808F000CB
:102610000000003036010000C030C828E810E0009B
:102620000718272423140B000000C038E000000026
:10263000203C23020227382008F888888870000090
:10264000203F202020110E00C03008080808380064
:10265000071820202010080008F808080810E000DB
:10266000203F202020100F0008F88888E80810007C
:10267000203F20202320180008F88888E808100050
:10268000203F200003000000C03008080838000088
:1026900007182020221E020008F808000008F80889
:1026A000203F210101213F20000808F80808000010
:1026B0000020203F2020000000000808F808080043
:1026C000C08080807F00000008F888C028180800BB
:1026D000203F20012638200008F8080000000000F4
:1026E000203F20202020300008F8F800F8F80800EB
:1026F000203F003F003F200008F830C00008F808E5
:10270000203F200007183F00E01008080810E000F4
:102710000F10202020100F0008F808080808F0000B
:10272000203F210101010000E01008080810E0002E
:102730000F18242438504F0008F8888888887000C3
:10274000203F2000030C3020007088080808380063
:102750000038202121221C00180808F80808180059
:102760000000203F2000000008F808000008F808DA
:10277000001F202020201F000878880000C838088B
:10278000000007380E010000F80800F80008F80003
:10279000033C0700073C030008186880806818089D
:1027A00020302C03032C30200838C800C83808001B
:1027B0000000203F2000000010080808C83808006A
:1027C0002038262120201800000000FE020202000E
:1027D0000000007F40404000000C30C000000000BE
:1027E000000000010638C00000020202FE000000E6
:1027F000004040407F00000000000402020204008C
:1028000000000000000000000000000000000000C8
:1028100080808080808080800002020400000000B0
:1028200000000000000000000000808080800000A8
:102830000019242222223F2008F800808000000096
:10284000003F112020110E00000000808080000059
:10285000000E112020201100000000808088F80068
:10286000000E112020103F2000008080808000009A
:10287000001F222222221300008080F088888818FE
:102880000020203F20200000000080808080800009
:10289000006B94949493600008F80080808000009E
:1028A000203F210000203F20008098980000000079
:1028B0000020203F202000000000008098980000A9
:1028C00000C08080807F000008F8000080808000C9
:1028D000203F24022D302000000808F800000000EE
:1028E0000020203F202000008080808080808000A9
:1028F000203F20003F20003F80800080808000003B
:10290000203F210000203F200000808080800000C8
:10291000001F202020201F008080008080000000F9
:1029200080FFA12020110E00000000808080800028
:10293000000E112020A0FF80808080008080800019
:1029400020203F2120000100000080808080800046
:102950000033242424241900008080E080800000BB
:102960000000001F20200000808000000080800008
:10297000001F202020103F20808080000080808069
:1029800000010E30080601008080008000808080F9
:102990000F300C030C300F0000808000808080001E
:1029A0000020312E0E312000808080000080808049
:1029B00080818E70180601000080808080808000F9
:1029C0000021302C2221300000000000807C020217
:1029D00000000000003F404000000000FF00000039
:1029E00000000000FF0000000002027C80000000E8
:1029F0000040403F00000000000601010202040404
:102A00000000000000000000282A0008000000204C
:102A100088000000D01B0008B02A000888000020B1
:102A200000040000E01B000800000000000000009F
:102A30000000000000000000000000000000000096
:102A40000000000000000000000000000000000086
:102A50000000000000000000000000000000000076
:102A60000000000000000000000000000000000066
:102A700034431010FF34431010FF0000000000002A
:102A80000000000000000000010203040102030432
:102A9000060708090204060800A24A040000000014
:102AA00000000000010203040607080900000000FE
:04000005080000ED02
:00000001FF
