:020000040800F2
:10000000D008002045010008952500089725000824
:100010009B2500089F250008A3250008000000007C
:10002000000000000000000000000000A7250008FC
:10003000A925000800000000AB250008AD25000838
:100040005F0100085F0100085F0100085F01000810
:100050005F0100085F010008058C00085F010008CF
:100060004B8C00087D8C0008AF8C00085F010008F5
:100070005F0100085F0100085F0100085F010008E0
:100080005F0100085F0100085F0100085F010008D0
:100090005F0100085F0100085F0100085F010008C0
:1000A0005F0100083D2C00085F0100085F010008A7
:1000B0004B280008C12B0008318F00085F010008A1
:1000C0005F0100085F0100085F0100085F01000890
:1000D0005F010008B52500085F01000877260008C9
:1000E0005F0100085F0100085F0100085F01000870
:1000F0005F0100085F0100085F0100085F01000860
:100100005F0100085F0100085F0100085F0100084F
:10011000C12700085F0100083F2A00085F010008AE
:100120005F0100085F0100085F0100085F0100082F
:10013000DFF80CD009F0DCFA004800477124000811
:10014000D00800200648804706480047FEE7FEE743
:10015000FEE7FEE7FEE7FEE7FEE7FEE7FEE7FEE777
:1001600047020008310100080CB500200190009002
:100170006C48006840F480306A49086000BF6948F4
:10018000006800F4003000900198401C0190009835
:1001900018B90198B0F5A06FF1D16248006800F479
:1001A000003010B10120009001E000200090009884
:1001B000012843D15C48006840F010005A490860AB
:1001C0000846006820F0030008600846006840F018
:1001D0000200086053484068524948600846406839
:1001E00048600846406840F48060486008464068BF
:1001F00020F47C1048600846406840F4E8104860ED
:100200000846006840F08070086000BF45480068FC
:1002100000F000700028F9D04248406820F0030048
:10022000404948600846406840F00200486000BF0E
:100230003C48406800F00C000828F9D10CBD10B50E
:10024000FFF792FF10BD10B53648006840F001007E
:1002500034490860084640683449084031494860DC
:1002600008460068324908402E4908600846006880
:1002700020F4802008600846406820F4FE004860B2
:100280004FF41F008860FFF7DAFF4FF00060294944
:10029000086010BD10B5002100200022214B5B68D2
:1002A00003F00C0121B1042906D0082928D107E068
:1002B000214B224C236027E01F4B204C236023E07E
:1002C000184B5B6803F47010164B5B6803F48032C4
:1002D000022303EB904022B9194B4343174C236090
:1002E0000DE0104B5B6803F4003323B1144B434320
:1002F000124C236003E0104B4343104C236003E097
:100300000D4B0E4C236000BF00BF064B5B68C3F370
:1003100003130C4CE15C094B1B68CB40074C23607A
:1003200010BD000000100240002002400000FFF855
:10033000FFFFF6FE08ED00E000127A00000000204A
:1003400000093D000400002031490143314A116099
:10035000704770B5002100230F22C47804B32D4CE0
:10036000246804F4E064C4F5E064210AC1F10403E4
:10037000CA40447804FA03F1847814402143090107
:10038000254C0678A155047804F01F050124AC40E3
:1003900005786D11AD0005F1E025C5F8004109E0D3
:1003A000047804F01F050124AC401C4D067876113A
:1003B00045F8264070BD1A4A0A400243154B1B1FE0
:1003C0001A60704739B1134A121D12680243114B6B
:1003D0001B1D1A6006E00F4A121D126882430D4B66
:1003E0001B1D1A607047042808D14FF0E0210969ED
:1003F00041F004014FF0E022116107E04FF0E021ED
:10040000096921F004014FF0E022116170470000FA
:100410000000FA050CED00E000E400E080E100E0FF
:1004200080FFFF1F002044490860091D0860091D66
:100430000860091D086041483F4914310860704751
:1004400000213D498279002A3AD00A4612680368A1
:100450009A430B461A600A1D126803689A430B1DE3
:100460001A60027911440A6803681A430A60324A22
:100470000832126803689A432F4B08331A601A1D1A
:10048000126803689A432C4B0C331A604279102A85
:100490000ED11A1F126803681A43274B08331A60DB
:1004A0001A1D126803681A43234B0C331A600DE0BF
:1004B0002149427911440A6803681A430A6005E039
:1004C000027911440A6803689A430A607047002160
:1004D000016001710C214171002181717047164941
:1004E000103109680143144A103211607047014607
:1004F0000020114A143212680A400AB1012000E0BB
:10050000002070470C4914310860704701460020F4
:100510000022094B1B6803EA0102074B14331B68D6
:100520000B4013B10AB1012000E0002070470249DE
:10053000143108607047000000040140FFFF0F0005
:1005400030B943F2DB028100A1F1C0410A6005E04D
:1005500043F2D2028100A1F1C0410A606FF0704203
:10056000411C8900A1F1C0410A608100A1F1C04194
:10057000C1F80421704710280AD118214FF02042F9
:100580001166402151664FF0FC319166D16610E052
:100590001821F74A116040214FF02042C2F8841020
:1005A0004FF0FC31F24A083211604FF02042C2F89D
:1005B0008C1070471820EE49203108600020090691
:1005C000C1F8A4004FF0FC30E94928310860091D4A
:1005D0000860091D08607047D0E901121143C26824
:1005E0001143026911434269114382691143C2698F
:1005F0001143026A1143426A1143826A1143C26A7B
:100600001143026B114302689200A2F1C0421160D3
:10061000816808290BD101688900A1F1C0410968EE
:1006200041F0400201688900A1F1C0410A60416BBC
:100630000968426B526841EA0211426B926841EAD2
:100640000221426B928941EA0241426B128A41EADD
:100650000251426B127D41EA0261426B9269114381
:100660000268521C9200A2F1C0421160C16AB1F549
:10067000804F1BD1816B0968826B526841EA02117D
:10068000826B926841EA0221826B128A41EA02512E
:10069000826B127D41EA0261826B926911430268AA
:1006A0009200A2F1C042C2F8041107E06FF070425C
:1006B00001688900A1F1C041C1F80421704730B53B
:1006C000002100220023446844F0080485682C437C
:1006D000C5682C4305692C43456944EA452485696E
:1006E00044EA4531C4692468C5696D6844EA052453
:1006F000C5692D8944EA0544C5692D7B44EA056234
:10070000046A2468056A6D6844EA0524056A2D892F
:1007100044EA0544056A2D7B44EA05630468102C0D
:1007200005D14FF020442166A266E36608E0904CB4
:1007300021604FF02044C4F888208D4C0C34236095
:1007400030BD016841F01001426841EA42218268EF
:1007500041EA4231864A20321160C1680968C268A4
:10076000526841EA0221C268128941EA0241C26824
:10077000127B41EA02617E4A2832116001690968F0
:100780000269526841EA02210269128941EA024182
:100790000269127B41EA0261754A2C32116041699B
:1007A00009684269526841EA02214269128941EAB4
:1007B00002414269127B41EA02614FF02042C2F8D5
:1007C000B01070470021016002214160002181606A
:1007D000C160016141618161C16101624FF4805179
:1007E0004162490081620021C16201630F21426BB5
:1007F0001160426B5160FF21426B91600F21426B8F
:10080000D160426B1161426B51610021426B916179
:100810000F21826B1160826B5160FF21826B9160AE
:100820000F21826BD160826B1161826B516100215B
:10083000826B9161704710210160002141608160ED
:10084000C160016141618161FC21C2691160C269BD
:100850005160C2699160C269D160026A1160026A26
:100860005160026A9160026AD160704700210160A4
:1008700041608160FC21C2681160C2685160C26839
:100880009160C268D16002691160026951600269B9
:1008900091600269D16042691160426951604269A8
:1008A00091604269D160704751B18200A2F1C042AB
:1008B000126842F001038200A2F1C042136009E015
:1008C0008200A2F1C04212682A4B1A408300A3F1B1
:1008D000C0431A60704799B1102808D14FF02042E8
:1008E000126E42F004024FF020431A661DE0204AC7
:1008F000126842F004024FF02043C3F8802014E055
:10090000102809D14FF02042126E1A4BDB1E1A40FC
:100910004FF020431A6608E0154A1268154BDB1E9B
:100920001A404FF02043C3F88020704748B1104967
:100930002031096841F004014FF02042C2F8A010B4
:1009400009E00B49203109680A4AD21E11404FF0D4
:100950002042C2F8A0107047B9B110280CD14FF056
:100960002042126E42F040024FF020431A661FE010
:10097000800000A0FEFF0F00724A126842F04002A1
:100980004FF02043C3F8802012E0102808D14FF028
:100990002042126E6C4B1A404FF020431A6607E05B
:1009A000684A1268684B1A404FF02043C3F8802011
:1009B000704701460020102903D14FF02042506FAC
:1009C00002E0604A14321068704710B5F2B1102886
:1009D00007D14FF020435B6E0B434FF0204463661A
:1009E00032E0B0F5807F08D1564B1B1D1B680B43CE
:1009F0004FF02044C4F8843026E0524B24331B6867
:100A00000B434FF02044C4F8A4301DE0102807D158
:100A10004FF020435B6E8B434FF02044636613E03E
:100A2000B0F5807F08D1474B1B1D1B688B434FF0EF
:100A30002044C4F8843007E0424B24331B688B43C6
:100A40004FF02044C4F8A43010BD10B50246002079
:100A50000023102A03D14FF02044636E09E0B2F561
:100A6000807F03D1374C241D236802E0354C2434A9
:100A7000236803EA01040CB1012000E0002010BD4E
:100A8000102807D14FF02042526E8A434FF0204386
:100A90005A6613E0B0F5807F08D12A4A121D126809
:100AA0008A434FF02043C3F8842007E0254A2432CC
:100AB00012688A434FF02043C3F8A420704770B5F2
:100AC00002460020002300240025102A03D14FF005
:100AD0002046736E09E0B2F5807F03D1194E361DB2
:100AE000336802E0174E2436336803EA010403EA50
:100AF000D10514B10DB1012000E0002070BD102817
:100B000008D14FF02042526E22EAD1024FF020432A
:100B10005A6615E0B0F5807F09D10A4A121D1268A5
:100B200022EAD1024FF02043C3F8842008E0054AAE
:100B30002432126822EAD1024FF02043C3F8A420E5
:100B400070470000800000A0BFFF0F0010B50446F2
:100B5000CC48844208D10121042000F02DFB002163
:100B6000042000F029FB46E0C748844208D1012157
:100B7000082000F021FB0021082000F01DFB3AE0D6
:100B8000C248844208D10121102000F015FB002149
:100B9000102000F011FB2EE0BD48844208D1012155
:100BA000202000F009FB0021202000F005FB22E0BE
:100BB000B848844208D10121402000F0FDFA00210C
:100BC000402000F0F9FA16E0B348844208D1012130
:100BD000802000F0F1FA0021802000F0EDFA0AE018
:100BE000AE48844207D10121801500F0E5FA0021CA
:100BF000A01500F0E1FA10BD10B50121084600F083
:100C0000DBFA0021012000F0D7FA10BD2DE9F041F8
:100C1000024600250026002000230024002791F82A
:100C200003C00CF00F0591F803C00CF0100CBCF1E0
:100C3000000F03D091F802C04CEA050591F800C0FE
:100C4000BCF1000F31D0146800202BE04FF0010CF4
:100C50000CFA00F3B1F800C00CEA03069E4220D162
:100C600083004FF00F0C0CFA03F7BC4305FA03FCAA
:100C70004CEA040491F803C0BCF1280F06D14FF0F0
:100C8000010C0CFA00FCC2F814C00AE091F803C091
:100C9000BCF1480F05D14FF0010C0CFA00FCC2F872
:100CA00010C0401C0828D1D31460B1F800C0BCF1BA
:100CB000FF0F34DD546800202EE000F1080C4FF0E7
:100CC000010808FA0CF3B1F800C00CEA03069E42D2
:100CD00021D183004FF00F0C0CFA03F7BC4305FA47
:100CE00003FC4CEA040491F803C0BCF1280F05D1C1
:100CF00000F1080C08FA0CF8C2F8148091F803C04F
:100D0000BCF1480F07D100F1080C4FF0010808FAB8
:100D10000CF8C2F81080401C0828CED35460BDE8FF
:100D2000F0814FF6FF710180022181700421C170B2
:100D300070470246002093680B400BB1012000E091
:100D4000002070470146886880B270470246002044
:100D5000D3680B400BB1012000E000207047014632
:100D6000C86880B2704701617047416170470AB13D
:100D7000016100E041617047C16070474FF480320B
:100D80000A43826181618261826982697047024699
:100D90000020434B18684FF68073184040EA021059
:100DA00008433F4B186070473E49C8617047F0B533
:100DB0000A46002300240021002500F00046B6F179
:100DC000004F02D1364EF16901E0354E7168C0F333
:100DD000034583B200F44016B6F5401F08D121F058
:100DE00070612F4E766826F070662D4F7E6012E09F
:100DF00000F48016B6F5801F06D1032606FA05F426
:100E0000A14341F0706106E0460D360103FA06F693
:100E1000B14341F0706122B1460D360103FA06F686
:100E2000314300F00046B6F1004F02D11C4EF16193
:100E300001E01B4E7160F0BD30B500228B071C0F26
:100E40000F2303FA04F2164B08338C1053F82430A6
:100E50009343134C08348D1044F8253023468C10EE
:100E600053F824308C07240F00FA04F423430C4C6D
:100E700008348D1044F8253030BD0A49DC31086053
:100E80007047000000080140000C014000100140C4
:100E90000014014000180140001C014000200140E6
:100EA0000000014000002042DF48006840F00100DF
:100EB000DD49086008464068DC490840DA49486076
:100EC00008460068DA490840D749086008460068C3
:100ED00020F4802008600846406820F4FE00486046
:100EE0004FF41F0088607047CF49096821F48031B2
:100EF000CD4A11601146096821F480211160B0F5D6
:100F0000803F03D0B0F5802F0ED106E0C6490968B6
:100F100041F48031C44A116007E0C349096841F4D3
:100F2000A021C14A116000E000BF00BF704710B5AA
:100F300001460022002300204A11012A02D1BA4CA6
:100F4000236806E0022A02D1B74C236A01E0B64CBE
:100F5000636A01F01F02012494401C400CB101207F
:100F600000E0002010BD38B50020009000240025CE
:100F700000BF3120FFF7DBFF05460098401C0090C2
:100F80000098B0F5A06F01D0002DF2D03120FFF70E
:100F9000CEFF08B1012400E00024204638BD014600
:100FA0000020A14A106820F0F80040EAC10010605B
:100FB0007047A04908607047024600209A4B586865
:100FC00020F47C1042EA01031843974B58607047A5
:100FD00098490866704701460020934A506820F0FF
:100FE00003000843506070478F48406800F00C00D1
:100FF0007047014600208C4A506820F0F0000843FA
:101000005060704701460020874A506820F4E06035
:1010100008435060704701460020834A506820F41E
:10102000605040EAC1005060704729B17E4A527A50
:1010300002437D4B5A7204E07B4A527A82437A4BD8
:101040005A7270477B49D8310860704701460020CA
:10105000754A506820F440400843506070470021B2
:10106000714A20321170704A82F82010012802D093
:1010700004280AD104E001216B4A2032117005E0F6
:101080000521694A2032117000E000BF00BF70479F
:101090006949086070476449096A0143624A1162FC
:1010A0007047654944390860704730B50021002217
:1010B000002400235C4D6D6805F00C0121B104296A
:1010C00005D0082923D105E05C4D056022E05B4D89
:1010D00005601FE0544D6D6805F47012524D6D6847
:1010E00005F48034022505EB92421CB9544D55435A
:1010F00005600BE04C4D6D6805F400351DB1504D99
:101100005543056002E04D4D5543056002E04B4DEF
:10111000056000BF00BF444D6D6805F0F00109098E
:10112000484D6B5C0568DD4045603F4D6D6805F4DA
:10113000E061090A434D6B5C4568DD4085603A4DCE
:101140006D6805F46051C90A3E4D6B5C4568DD4031
:10115000C560354D6D6805F44041890B3A4D6B5CB7
:10116000C568B5FBF3F5056130BD29B12E4A52695A
:1011700002432D4B5A6104E02B4A526982432A4BA9
:101180005A61704729B1284A92690243264B9A61F5
:1011900004E0254A92698243234B9A61704729B142
:1011A000214AD2690243204BDA6104E01E4AD26927
:1011B00082431D4BDA61704729B11B4AD268024352
:1011C000194BDA6004E0184AD2688243164BDA60A1
:1011D000704729B1144A12690243134B1A6104E0A3
:1011E000114A12698243104B1A6170471249403903
:1011F000086070470F49C86470470B49C871704751
:101200000948406A40F080700749486270470146CB
:101210000020054A92680A400AB1012000E000203F
:101220007047014988727047001002400000FFF8C3
:10123000FFFFF6FE000042428004424200127A00A4
:1012400000093D00140000202400002010B50446D1
:10125000FE48844208D10121C014FFF7ADFF0021F0
:10126000E014FFF7A9FFC4E0B4F1804F08D10121D9
:101270000846FFF7AEFF00210120FFF7AAFFB8E004
:10128000F348844208D101210220FFF7A2FF002188
:101290000220FFF79EFFACE0EE48844208D1012116
:1012A0000420FFF796FF00210420FFF792FFA0E043
:1012B000E948844208D101210820FFF78AFF002174
:1012C0000820FFF786FF94E0E448844208D101211A
:1012D0001020FFF77EFF00211020FFF77AFF88E043
:1012E000DF48844208D101212020FFF772FF00214E
:1012F0002020FFF76EFF7CE0DA48844208D101210C
:101300004014FFF759FF00216014FFF755FF70E00C
:10131000D548844209D10121C804FFF74DFF0021BF
:101320004FF40020FFF748FF63E0D048844209D122
:1013300001210805FFF740FF00214FF48010FFF75F
:101340003BFF56E0CA48844209D101214805FFF716
:1013500033FF00214FF40010FFF72EFF49E0C5488E
:10136000844208D101214020FFF733FF00214020B3
:10137000FFF72FFF3DE0C048844208D101218020C3
:10138000FFF727FF00218020FFF723FF31E0BB4854
:10139000844208D101218015FFF71BFF0021A01511
:1013A000FFF717FF25E0B648844209D10121080460
:1013B000FFF702FF00214FF48030FFF7FDFE18E039
:1013C000B048844209D101214804FFF7F5FE00210D
:1013D0004FF40030FFF7F0FE0BE0AB48844208D139
:1013E00001218804FFF7E8FE00214FF48020FFF779
:1013F000E3FE10BD00220288944B98420ED0994B18
:1014000098420BD0B0F1804F08D0914B984205D054
:10141000904B984202D0904B984204D14FF68F7374
:101420001A404B881A438D4B984207D08C4B9842F8
:1014300004D04FF6FF431A40CB881A4302808B88B2
:1014400083850B880385814B98420BD0854B98424E
:1014500008D08B4B984205D08A4B984202D08A4BD9
:10146000984201D10B7A038601238382704770B5BD
:10147000002400220023058C4FF6FE7635400584BB
:10148000028C8388048B4FF68F752C40B51E2C4040
:101490000D882C43751E2A400D892A434D882A4306
:1014A0006A4DA8420BD06F4DA84208D0744DA84297
:1014B00005D0744DA84202D0734DA84213D14FF607
:1014C000F7752A404D892A434FF6FB752A408D88CF
:1014D0002A434FF6FF652B404FF6FF552B408D8971
:1014E0002B43CD892B4383800483CD88858602845A
:1014F00070BD70B5002400220023058C4FF6EF76F6
:1015000035400584028C8388048B48F6FF752C4097
:101510004FF6FF452C400D884FF6FF7606EA05256D
:101520002C434FF6DF752A400D8906EA05152A433C
:101530004D8806EA05152A43444DA84202D0494D7C
:10154000A8421DD14FF67F752A404D894FF6FF7690
:1015500006EA05152A434FF6BF752A408D8806EA2C
:1015600005152A434FF6FF352B404FF2FF752B40F0
:101570008D8906EA85052B43CD8906EA85052B432F
:1015800083800483CD880587028470BD70B50024F4
:1015900000220023058C4FF6FF6635400584028C3F
:1015A0008388848B4FF68F752C404FF6FC752C404A
:1015B0000D882C434FF6FF552A400D894FF6FF76D4
:1015C00006EA05252A434D8806EA05252A431F4DCC
:1015D000A84202D0234DA8421DD14FF2FF752A40E8
:1015E0004D894FF6FF7606EA05252A434FF6FF356B
:1015F0002A408D8806EA05252A434EF6FF752B40C2
:101600004DF6FF752B408D8906EA05152B43CD89D4
:1016100006EA05152B4383808483CD888587028461
:1016200070BD70B5002200230024058C4EF6FF76B5
:1016300035400584038C8488828B48F6FF752A40E8
:101640004FF6FF452A400D8820E00000002C0140A5
:101650000004004000080040000C00400010004062
:101660000014004000340140004C01400050014093
:101670000054014000180040001C004000200040C1
:101680000040014000440140004801404FF6FF7611
:1016900006EA05252A434DF6FF752B400D8906EA1B
:1016A00005352B434D8806EA05352B43FA4DA842F4
:1016B00002D0FA4DA84208D14BF6FF752C408D8917
:1016C0004FF6FF7606EA85152C4384808283CD8809
:1016D000A0F84050038470BD828B4FF2FF331A4054
:1016E0008283828B4FF6FF7303EA01231A438283BE
:1016F0007047F0B50C461546002200210026078CE5
:101700004EF6FF7C07EA0C070784828B018C4FF6AC
:10171000FF7707EA043640F6FF473A404FF6FF7777
:1017200007EA05273A434FF6FF7707EA03373A43BC
:10173000D94FB8420ED0D94FB8420BD0B0F1804F3C
:1017400008D0D74FB84205D0D64FB84202D0D64FB6
:10175000B84206D14DF6FF77394046F480573943F9
:1017600005E047F6FF57394044F4805739438283F8
:101770000184F0BD828B4FF6F3731A408283828B13
:101780000A4382837047F0B50C46154600220021BB
:101790000026078C4FF6FF6C07EA0C070784828B44
:1017A000018C4FF6FF7707EA04264FF60C773A4094
:1017B0004FF6FF7707EA03172F433A43B64FB84275
:1017C0000ED0B64FB8420BD0B0F1804F08D0B44F16
:1017D000B84205D0B34FB84202D0B34FB84206D199
:1017E0004FF6FF57394046F48077394305E04FF212
:1017F000FF57394044F48077394382830184F0BD38
:10180000028B4FF2FF331A400283028B4FF6FF73B5
:1018100003EA01231A4302837047F0B50C461546CC
:10182000002200210026078C4FF6EF7C07EA0C0708
:101830000784028B018C4FF6FF7707EA041640F607
:10184000FF473A404FF6FF7707EA03373A434FF630
:10185000FF7707EA05273A438F4FB8420ED08F4FE4
:10186000B8420BD0B0F1804F08D08D4FB84205D0B0
:101870008C4FB84202D08C4FB84206D14FF6DF777A
:10188000394046F01007394305E04FF65F7739409D
:1018900044F01007394302830184F0BD028B4FF6F8
:1018A000F3731A400283028B0A4302837047F0B538
:1018B0000C46154600220021068C4FF6FE773E406E
:1018C0000684028B018C4FF60C7632407E1C06EAB1
:1018D00003162E433243704EB0420ED06F4EB042CC
:1018E0000BD0B0F1804F08D06D4EB04205D06D4E98
:1018F000B04202D06C4EB04206D14FF6FD76314078
:1019000044F00106314305E04FF6F576314044F0EE
:101910000106314302830184F0BD70B505460C46D3
:101920005D4885420ED05D4885420BD0B5F1804FB1
:1019300008D05B48854205D05A48854202D05A48B3
:10194000854200D100E000BF208850B92389A288D9
:1019500061882846FFF7ABFFE1882846FFF79EFF26
:1019600025E0208804280AD12389A2886188284696
:10197000FFF753FFE1882846FFF742FF17E0208872
:1019800008280AD12389A28861882846FFF7FBFE30
:10199000E1882846FFF7EEFE09E02389A2886188E6
:1019A0002846FFF7A6FEE1882846FFF795FE70BDA2
:1019B0002DE9F04105460C4600260127608808B94C
:1019C000022600E00026A088012801D1022700E0BD
:1019D00001272088A0B92389A28861882846FFF7BB
:1019E00066FFE1882846FFF759FF23893A463146CA
:1019F0002846FFF712FFE1882846FFF701FF13E0B2
:101A00002389A28861882846FFF707FFE1882846D6
:101A1000FFF7F6FE23893A4631462846FFF747FF8F
:101A2000E1882846FFF73AFFBDE8F0810A884B8835
:101A30001A438B881A43CB881A430B891A434B8964
:101A40001A438B891A43A0F8442070474FF6FF7160
:101A5000818000210180C180418001727047002196
:101A6000018041808180C180018141818181C1816A
:101A70007047002101804180012181800021C180C7
:101A8000018170470021018041808180C1800181F6
:101A90004181818170470000002C014000340140E9
:101AA0000004004000080040000C004021B1028802
:101AB00042F00102028004E002884FF6FE731A40F1
:101AC0000280704731B1B0F8442042F40042A0F8DF
:101AD000442005E0B0F84420C2F30E02A0F84420F0
:101AE00070471AB183890B43838102E083898B435A
:101AF000838170478182704741EA0203A0F8483031
:101B000070471AB183890B43838102E083898B4339
:101B10008381704701894FF6F87211400181704747
:101B20000A46002101894FF68F7319401143018144
:101B3000704730B504460D4629462046FFF7F0FFB2
:101B4000208940F00700208130BD2DE9F041044696
:101B50000D4616461F46602D06D13B4601223146F2
:101B60002046FFF75AFE05E03B460122314620465B
:101B7000FFF79DFE29462046FFF7D2FF208940F05F
:101B800007002081BDE8F08130B50C4600210189B5
:101B9000C9B24FF6FF7505EA0325154325432943CE
:101BA000018130BD2DE9F04105460E4617469846A5
:101BB000002443463A4631462846FFF7E5FF2C8984
:101BC0004FF6F870044044F007044FF68F7004405D
:101BD00044F070042C81BDE8F081F0B504460D4658
:101BE00016461F463B46324629462046FFF7CCFFA5
:101BF000208940F480402081F0BD018582827047B9
:101C00000A46002101884FF68F7319401143018065
:101C10007047F0B50C4615461E46002100220023F1
:101C20000189028B038C4FF6F877394021434FF638
:101C3000FC473A4040F201173A434FF6DD773B400C
:101C40004FF6FF7707EA06172F433B4301810283D4
:101C50000384F0BD0A460021018B4FF68F731940B3
:101C60001143018370470A460021018B48F6FF7338
:101C700019404FF6FF7303EA0223194301837047AB
:101C80000A460021818B4FF68F73194011438183DF
:101C900070470A460021818B48F6FF7319404FF6C2
:101CA000FF7303EA022319438183704721B102883D
:101CB00042F08002028004E002884FF67F731A40EF
:101CC0000280704721B1828842F00402828004E0E1
:101CD00082884FF6FB731A408280704721B1828858
:101CE00042F00802828004E082884FF6F7731A40BF
:101CF0008280704721B1828842F00102828004E034
:101D000082884FF6FE731A40828070470A4600218F
:101D1000018B4FF6F77319401143018370470A4650
:101D20000021018B4FF2FF7319404FF6FF7303EA56
:101D300002231943018370470A460021818B4FF625
:101D4000F77319401143818370470A460021818B44
:101D50004FF2FF7319404FF6FF7303EA0223194352
:101D6000818370470A460021018B4FF6FB731940AF
:101D70001143018370470A460021018B4FF6FF3360
:101D800019404FF6FF7303EA02231943018370479A
:101D90000A460021818B4FF6FB7319401143818362
:101DA00070470A460021818B4FF6FF3319404FF6EA
:101DB000FF7303EA02231943818370470A46002117
:101DC000018B4FF67F7319401143018370470A4618
:101DD0000021018BC1F30E014FF6FF7303EA0223CA
:101DE0001943018370470A460021818B4FF67F73A8
:101DF00019401143818370470A460021818BC1F34A
:101E00000E014FF6FF7303EA0223194381837047E3
:101E10000A460021018C4FF6FD73194011430184DD
:101E200070470A460021018C4FF6F77319401143A1
:101E3000018470470A460021018C4FF6DF73194078
:101E40004FF6FF7303EA02131943018470470A46F1
:101E50000021018C4FF67F7319404FF6FF7303EAA0
:101E600002131943018470470A460021018C4FF682
:101E7000FF5319404FF6FF7303EA0223194301840D
:101E800070470A460021018C4FF2FF7319404FF64C
:101E9000FF7303EA02231943018470470A460021B5
:101EA000018C4DF6FF7319404FF6FF7303EA0233BE
:101EB00019430184704730B5002301248C40A3B23C
:101EC000048C9C430484048C02FA01F5ADB22C43CB
:101ED000048430BD30B5002304248C40A3B2048CAC
:101EE0009C430484048C02FA01F5ADB22C430484B3
:101EF00030BD70B503460020002418461830012577
:101F00008D40ACB21D8CA5431D8409B1082909D1AF
:101F100000EB6100056825F0700505600568154354
:101F200005600EE00D1FC5F34E052844056825F435
:101F3000E045056005684FF6FF7606EA0226354360
:101F4000056070BD21B1028842F00202028004E007
:101F500002884FF6FD731A400280704721B1028853
:101F600042F00402028004E002884FF6FB731A403C
:101F70000280704721B1828842F08002828004E0B2
:101F800082884FF67F731A408280704702884FF62E
:101F9000F7731A40028002880A43028070478288E1
:101FA0004FF68F731A40828082880A43828070477E
:101FB00002894FF6F8731A40028102890A430281AE
:101FC000704702894FF67F731A40028102890A43E3
:101FD0000281704781847047818570478186704790
:101FE0000187704781877047A0F8401070470288CA
:101FF0004FF6FF431A40028002880A43028070476E
:102000000146888E70470146088F70470146888FC9
:1020100070470146B1F8400070470146888C704710
:102020000146088D704702460020138A0B400BB111
:10203000012000E000207047CA430282704730B59B
:102040000246002000230024158A05EA0103958931
:1020500005EA010413B10CB1012000E0002030BDFD
:10206000CA4302827047000010B50446FB48844210
:1020700009D101218803FFF79FF800214FF4804028
:10208000FFF79AF832E0F648844209D1012148046A
:10209000FFF79FF800214FF40030FFF79AF825E092
:1020A000F048844209D101218804FFF792F8002109
:1020B0004FF48020FFF78DF818E0EB48844209D1F7
:1020C0000121C804FFF785F800214FF40020FFF735
:1020D00080F80BE0E548844208D101210805FFF7AC
:1020E00078F800214FF48010FFF773F810BD2DE948
:1020F000F04786B005460E460024A24600BFA14622
:102100000027B08900B100BF2F462C8A4CF6FF7023
:102110000440F08804432C82AC894EF6F31004404E
:10212000B08831890843718908430443AC81AC8A83
:102130004FF6FF400440B0890443AC8201A8FEF78B
:10214000B4FFC648874202D1DDF810A001E0DDF8F7
:102150000CA0A88900F4004040B10AEBCA0000EBD3
:102160000A1031684900B0FBF1F807E00AEBCA0039
:1021700000EB0A1031688900B0FBF1F86420B8FB6D
:10218000F0F004012009642101FB1089A88900F402
:10219000004040B1322000EBC900B0FBF1F000F08C
:1021A0000700044308E0322000EB09106421B0FB73
:1021B000F1F000F00F0004432C8106B0BDE8F08779
:1021C0004FF41651016000218180C18001810C21F2
:1021D000418100218181704710B502460020108A9C
:1021E0004FF2FF0318400B884C8823438C8823430D
:1021F000CC8823431843108210BD00210180418008
:102200008180C180704721B1828942F4005282816D
:1022100004E082894DF6FF731A4082817047F0B561
:102220000346002400260025002040F66A17B94224
:1022300000D100BF1846C1F3421401F01F06012768
:1022400007FA06F5012C01D10C3004E0022C01D173
:10225000103000E014301AB107682F43076002E025
:102260000768AF430760F0BD1AB1838A0B438382CE
:1022700002E0838A8B4383827047028A4FF6F073B1
:102280001A400282028A0A430282704782894FF210
:10229000FF731A40828182890A438281704721B18B
:1022A000828942F00202828104E082894FF6FD7346
:1022B0001A4082817047028A4FF6DF731A40028209
:1022C000028A0A430282704721B1028A42F48042A4
:1022D000028204E0028A4BF6FF731A4002827047C2
:1022E000C1F308028280704701468888C0F3080065
:1022F0007047818941F0010181817047028BD2B220
:102300000283028B42EA012202837047028B02F4AD
:102310007F420283028B0A430283704721B1828A83
:1023200042F02002828204E0828A4FF6DF731A4074
:102330008282704721B1828A42F01002828204E0D8
:10234000828A4FF6EF731A408282704721B1828AE7
:1023500042F00802828204E0828A4FF6F7731A4044
:102360008282704721B1828942F40042828103E077
:102370008289C2F30E028281704721B1828A42F4BF
:102380000062828204E0828A4FF2FF731A408282E6
:102390007047828A4FF6FB731A408282828A0A4310
:1023A0008282704721B1828A42F00202828204E076
:1023B000828A4FF6FD731A408282704702460020DF
:1023C000B1F5007F00D100BF13880B400BB1012095
:1023D00000E00020704701F40072B2F5007F00D1E8
:1023E00000BFCA430280704770B502460024002334
:1023F0000025002040F66A16B14200D100BFC1F3AB
:10240000421501F01F03012606FA03F3012D02D144
:102410009689334006E0022D02D1168A334001E04E
:10242000968A33400C12012606FA04F416883440CA
:1024300013B10CB1012000E0002070BD10B50022E6
:10244000002340F66A14A14200D100BF0A12012401
:102450009440A3B2DC43048010BD0000003801406A
:102460000044004000480040004C00400050004044
:102470001CB500F021FC00F05AFC06F050FC00F006
:1024800021FD01F0F5F806F0F9FC06F0B5FB00209F
:10249000234908602349C1F8940102F084FB4FF4FA
:1024A00078402149088021A010214023C822CDE98D
:1024B000001032211E2006F0FAF920A0102140233E
:1024C000C822CDE9001011461E2006F0F0F910E0F8
:1024D00022A007F01FF9274800F021FD254800F051
:1024E0001EFD0F48006808B9012000E000200C49DB
:1024F000086001F0B7F90028EAD00FE04FF4C87087
:1025000000F06FFD1CA010214023C822CDE900106F
:1025100051001E2006F0CBF901F0F7F9EEE70000BC
:1025200094812142000023428600002057656C639D
:102530006F6D6520746F20757365000047616D6570
:1025400020626173656420656475636174696F6E90
:10255000616C20726F626F740000000050414A3756
:102560003632305532204572726F722121210D0AA8
:102570000000000020A10700476573747572652094
:102580007265636F676E6974696F6E20706C6561E8
:1025900073652000704700BFFEE700BFFEE700BF85
:1025A000FEE700BFFEE770477047704710B500F0C8
:1025B000C0FC10BD10B540F22551FE48FFF714FFD6
:1025C000002857D0FB48FFF78FFEC4B2FA480078C6
:1025D00000F0010000284DD1F7480078C0F38000DA
:1025E000002847D0082C1AD1F4480078002841D0A0
:1025F0000821F04800F0DFFB2021EE4800F0DBFB73
:102600000821EC4800F0D7FBEC480078401EEB496D
:1026100008700020EA49E94A127888542AE0E7481D
:102620000078FF280FDAE648E4490978445400218D
:102630000246E2480078401C1154E0480078401CF3
:10264000DE49087008E0DD480078401EDC490C5483
:102650000821D84800F0AFFB0D2C07D1D6480078F0
:1026600020F00200801CD449087003E02146D148C4
:1026700000F0A1FB10BD10B540F22551D148FFF785
:10268000B3FE002823D0CF48FFF72EFEC4B25B2C48
:1026900003D10120CC4908600AE02C2C03D1022090
:1026A000C949086004E05D2C02D10320C6490860D6
:1026B000C548006801280BD1A4F13000C349C44AC1
:1026C00012688854C2480068401CC149086076E01E
:1026D000BD48006802280BD1A4F13000BB49BD4AB7
:1026E00012688854BB480068401CBA49086066E01C
:1026F000B5480068032862D1B548006804280FD1A6
:10270000B248407864214843B049897801EB81019F
:1027100000EB4100AA49C9780844AF49086016E0B7
:10272000AB48006803280AD1A8488078A7494978AF
:1027300001EB810100EB4100A749086007E0A448D4
:102740000068022803D1A1484078A3490860A14845
:10275000006808280FD19D484079642148439B496F
:10276000897901EB810100EB41009549C979084461
:102770009A49086016E09748006807280AD19348EC
:1027800080799249497901EB810100EB410093493D
:10279000086007E08F480068062803D18B4840791D
:1027A0008E49086000208A49086004208949086031
:1027B0008148007820F00200801C7F49087010BD1D
:1027C00010B540F225518648FFF70EFE00283BD099
:1027D0008348FFF789FDC4B2302C02D10020814923
:1027E0000860312C02D101207E490860322C02D1D0
:1027F00002207C490860332C02D10320794908600B
:10280000342C02D1042077490860352C02D10120F4
:1028100069498870362C02D101206749C870372C6D
:1028200002D1012064490871382C02D1012062498B
:102830004871392C02D101205F4948706A4800680C
:1028400080F020006849086010BD10B5012188079C
:10285000FFF7F5FBB8B165488088401C6349888064
:1028600063488088401C6249888062488088401C98
:102870006049888060488088401C5F4988800121C9
:102880008807FFF7EDFB02214807FFF7D8FB38B3B5
:102890005648407880B900214FF08040FFF79AFBFE
:1028A000002052498880488002214807FFF7B0FA8B
:1028B00001204E4948700FE04FF08040FFF7A0FB29
:1028C0004A49488000214FF08040FFF7A1FA0020DC
:1028D000464948700120087002214807FFF7C0FBF5
:1028E00004210807FFF7ABFB38B34148407880B9B3
:1028F00000214FF08040FFF76DFB00203C498880AD
:10290000488002214807FFF795FA012038494870AE
:102910000FE04FF08040FFF776FB354948800021FB
:102920004FF08040FFF786FA0020314948700120BF
:10293000087004210807FFF793FB0821C806FFF77A
:102940007EFB38B32B48407880B900214FF080409F
:10295000FFF740FB00202749888048800221480774
:10296000FFF782FA0120234948700FE04FF08040C2
:10297000FFF74CFB1F49488000214FF08040FFF7D4
:1029800073FA00201B494870012008700821C8060E
:10299000FFF766FB10218806FFF751FB70B316485E
:1029A000407860BB00214FF08040FFF713FB002010
:1029B000114925E0003801405C0000205000002053
:1029C0009C00002000480040440000209C010020A2
:1029D00034000020380000203C000020400000208F
:1029E000004C0040280000200C1801409C020020F0
:1029F000AC020020BC020020CC0200201EE009E056
:102A00008880488002214807FFF748FA0120994949
:102A100048700FE04FF08040FFF7FBFA954948807F
:102A200000214FF08040FFF739FA002091494870AB
:102A30000120087010218806FFF712FB10BD10B5A9
:102A400001218D48FFF7FBFA00287CD08B480068F5
:102A5000401C8A4908608A480068401C8849086010
:102A60000846006832281CD186480068052813D221
:102A7000DFE800F00306090C0F0000F004FD0CE095
:102A800000F013FD09E000F044FD06E000F075FDE4
:102A900003E000F0A4FD00E000BF00BF0020784983
:102AA00008607648006802280AD20120764908604A
:102AB00000207649C1F884017349183108606CE040
:102AC0006E48006847F23051884209D200206E49B2
:102AD00008606E49C1F884016B49183108605CE0F8
:102AE0006648006847F2325188420BD2002066499E
:102AF000086001206549C1F884010020624918314D
:102B000008604AE05D4800684EF66021884209D2BC
:102B100000205D4908605D49C1F884015A491831B7
:102B200008603AE0554800684EF6622188420BD2B0
:102B30000020554908605549C1F8840101205249D7
:102B40001831086029E03AE04C4800685049884252
:102B500009D200204C4908604C49C1F884014A4917
:102B60001831086019E0454800684949891C8842C5
:102B70000AD20020444908604449C1F88401012078
:102B800041491831086008E000203F4908603F498A
:102B9000C1F884013C4918310860384800683D4953
:102BA000884208D90020354908603B48006880F019
:102BB00020003949086001212F48FFF751FA10BD64
:102BC00010B502213548FFF73AFA012808D1022151
:102BD0003248FFF745FA32480068401C3049086027
:102BE00004212E48FFF72BFA012808D104212B4895
:102BF000FFF736FA2B480068401C2A490860082174
:102C00002648FFF71CFA012808D108212348FFF7BE
:102C100027FA25480068401C2349086010211F48F6
:102C2000FFF70DFA012808D110211C48FFF718FA08
:102C30001E480068401C1D49086010BD1C480078F3
:102C4000022803D100201B49086011E018480078D1
:102C5000012805D117480068401C1649086007E0A4
:102C60001348007820B913480068401E11490860D5
:102C700070470000CC0200200010004048000020F7
:102C80004C00002028000020800123420000234245
:102C900080380100A08601000C0C014000040040B7
:102CA00064000020680000206C00002070000020FC
:102CB000300000202C00002008B501214820FEF73C
:102CC00061FA2020ADF8000010208DF803000320E9
:102CD0008DF8020069460A48FDF798FF2020ADF8FC
:102CE000000069460748FDF791FF20210448FEF7E0
:102CF0003AF820210348FEF736F808BD7047000077
:102D0000000C01400018014008B54FF4A060FDF729
:102D10001BFB25208DF8000001208DF801008DF8A7
:102D200002008DF803006846FDF713FB08BD00B5EF
:102D300085B001210420FEF725FA01218803FEF762
:102D400021FA4FF40070ADF8100018208DF8130030
:102D500003208DF8120004A95648FDF757FF4FF4E1
:102D60008060ADF8100004208DF8130004A95148CC
:102D7000FDF74CFF4FF4E13000900020ADF8040067
:102D8000ADF80600ADF80800ADF80C000C20ADF869
:102D90000A0069464848FFF7AAF9FFF7B5FF012284
:102DA00040F225514448FFF73AFA01214248FFF723
:102DB0002AFA05B000BD70B504460D4629462046E6
:102DC000FFF78EFA00BF80212046FFF7F7FA0028B0
:102DD000F9D070BD2DE9F04107460D461646002496
:102DE00005E0295D3846FFF7E6FF601CC4B2B44237
:102DF000F7DB00BF40213846FFF7E0FA0028F9D0A2
:102E0000BDE8F08170B506460C46002500BF615D47
:102E10003046FFF7D0FF6D1C605D0028F7D100BF82
:102E200040213046FFF7CAFA0028F9D070BD2DE9DD
:102E3000F04105460C46260AE7B231462846FFF720
:102E40004FFA00BF80212846FFF7B8FA0028F9D0D2
:102E500039462846FFF744FA00BF80212846FFF78D
:102E6000ADFA0028F9D0BDE8F081002013490870C0
:102E70001349124A12788854704770B504460D46BB
:102E8000E1B20D48FFF72CFA00BF80210A48FFF796
:102E900095FA0028F9D0204670BD10B5044600BF51
:102EA00020210548FFF78AFA0028F9D00248FFF7E9
:102EB0001BFA10BD000801400038014050000020FE
:102EC0009C00002030B54C4800684C4AB0FBF2F141
:102ED000B1F1807F01D301201DE021F07F40401E31
:102EE0004FF0E022506150170F22002807DA130735
:102EF0001D0E434B00F00F04241F1D5503E0130764
:102F00001C0E404B1C5400BF00204FF0E02290618B
:102F100007201061002008B100BFFEE730BD01B5F9
:102F200039490098086000BF374800680028FBD185
:102F300008BD3548006820B133480068401E32495A
:102F400008607047002100BF48E000BF00BF00BF1D
:102F500000BF00BF00BF00BF00BF00BF00BF00BF79
:102F600000BF00BF00BF00BF00BF00BF00BF00BF69
:102F700000BF00BF00BF00BF00BF00BF00BF00BF59
:102F800000BF00BF00BF00BF00BF00BF00BF00BF49
:102F900000BF00BF00BF00BF00BF00BF00BF00BF39
:102FA00000BF00BF00BF00BF00BF00BF00BF00BF29
:102FB00000BF00BF00BF00BF00BF00BF00BF00BF19
:102FC00000BF00BF00BF00BF00BF00BF00BF00BF09
:102FD00000BF00BF00BF00BF00BF491C8142B4D387
:102FE000704710B503464FF47A7003FB00F4204697
:102FF000FFF7A8FF10BD00000000002040420F00B6
:1030000018ED00E000E400E0540000200020FE493C
:1030100009684862FC490968C862FB490968086296
:103020000021FA48F84A12689160D060F849F948DE
:10303000F54A126811615061F748F34A12689161CC
:10304000D0611420F049096808600020EE49096841
:103050000863ED4909684863EB4909688862EF49EC
:1030600009684862ED490968C862EC490968086264
:10307000E649EA4A12689060D160E549E548E74AC6
:10308000126811615061E448E44A12689161D061AC
:103090001420E249096808600020E04909680863D3
:1030A000DE4909684863DD4909688862DC490968C6
:1030B0004862DB490968C862D94909680862002189
:1030C000D248D74A12689160D060D148D149D44AD9
:1030D0001268106151610146CF48D14A126891616E
:1030E000D0611420CE49096808600020CC490968E5
:1030F0000863CB4909684863C94909688862C949B6
:1031000009684862C7490968C862C649096808620F
:10311000BE49C44A12689060D160BD48BD49C14AE9
:103120001268106151610146BB48BE4A1268916144
:10313000D0611420BB49096808600020B9490968BA
:103140000863B84909684863B649096888627047E6
:1031500070B505460C46012C03D12946B248FEF74E
:103160003DFF022C03D12946AF48FEF739FF032C5F
:1031700003D12946AC48FEF735FF042C03D129467C
:10318000A948FEF731FF70BD2DE9F0478AB004462B
:10319000894692462068A0EB09002062E06A06F0AA
:1031A0004BF90546A769E3693A4606F064F8CDE9AC
:1031B0000601606A06F040F90746256963692A46F8
:1031C00006F059F8CDE90201206A06F035F9074604
:1031D000A568E3682A4606F04EF8CDE90001DDE96E
:1031E000022306F042F8CDE90401DDE9062305F0EB
:1031F0009BFFCDE9080106F03DF9A062606AE0623C
:10320000206A6062206BA16A08446063606B20637F
:10321000606BB0F5617F02DD4FF461706063606BDD
:10322000002801DA002060630AF0FF01626B90B2AF
:10323000FFF78EFF0AB0BDE8F0872DE9F04F89B0A7
:103240000446714800680068A0EB04096E490968EB
:10325000C86A06F0F1F805466B4800688769C369DB
:103260003A46284606F007F8CDE9040166490968A0
:10327000486A06F0E1F80746634800680569436953
:103280002A46384605F0F7FFCDE90001484606F02A
:10329000D3F8074688465C4801688D68CB682A46A3
:1032A0003846414605F0E7FF8246DDE9002305F098
:1032B000DCFFCDE90201DDE9042305F035FFCDE9AE
:1032C000060106F0D7F808904F480068406A4E495A
:1032D0000968C8624C480068C0F82490089809B092
:1032E000BDE8F08F08B5012211464F48FEF7F9FB03
:1032F0001E208DF8000000208DF8010003208DF8BD
:10330000020001208DF803006846FDF722F808BD91
:1033100000B589B001210420FDF741FF01210920FA
:10332000FDF730FF4FF47070ADF8200018208DF8D5
:10333000230003208DF8220008A93C48FDF766FC15
:1033400001212020FDF71EFFF020ADF82000102005
:103350008DF8230003208DF8220008A93448FDF7DA
:1033600055FC40F2E730ADF818000320ADF814002A
:103370000020ADF81A00ADF8160005A92A48FEF79E
:1033800039F86020ADF804000120ADF806000020F7
:10339000ADF80C0001A92448FEF769F8082122487D
:1033A000FEF7B4FC01A92048FEF7A3F808211E4847
:1033B000FEF7B5FC01A91C48FEF7E8F808211A48F9
:1033C000FEF7BAFC01A91848FEF72BF908211648A8
:1033D000FEF7BBFC01211448FEF768FC01211248EE
:1033E000FEF7BCFD01211048FEF73AFE012211460E
:1033F0000D48FEF776FB01210B48FEF757FB4FF413
:10340000FA71094816E00000740000200000F83F3F
:103410009A9999999999E93F9999D93F780000200B
:103420007C0000208000002000080040000C0140CB
:1034300000140140FEF7D2FD4FF4FA718148FEF707
:10344000CFFD4FF4FA717F48FEF7CCFD4FF4FA71CF
:103450007C48FEF7C9FD00217A48FEF7BFFD002138
:103460007848FEF7BDFD00217648FEF7BBFD002140
:103470007448FEF7B9FD09B000BD10B5FFF732FF83
:10348000FFF746FF10BD10B501210020FFF760FED9
:1034900002210020FFF75CFE03210020FFF758FE09
:1034A00004210020FFF754FE10BD10B5012066492D
:1034B000086000206549C1F8940101206249083183
:1034C00008600020091D0860012261480168614808
:1034D000FFF75AFE00205E49086002225E4801683C
:1034E0005E48FFF751FE00205B49086003225C48FC
:1034F00001685C48FFF748FE002059490860042233
:10350000594801685948FFF73FFE002056490860B6
:1035100010BD10B500204C49086001204B49C1F88E
:10352000940100204849083108600120091D086005
:103530000122474801684748FFF726FE002044491A
:1035400008600222444801684448FFF71DFE00203D
:10355000414908600322424801684248FFF714FECF
:1035600000203F49086004223F4801683F48FFF7B8
:103570000BFE00203C49086010BD10B50020324908
:1035800008603249C1F8940101202F4908310860D0
:10359000091D086001222E4801682E48FFF7F4FD3E
:1035A00000202B49086002222B4801682B48FFF7B6
:1035B000EBFD0020284908600322294801682948BA
:1035C000FFF7E2FD00202649086004222648016832
:1035D0002648FFF7D9FD00202349086010BD10B52B
:1035E0000120194908601949C1F8940100201649C1
:1035F00008310860091D0860012215480168154856
:10360000FFF7C2FD0020124908600222124801683B
:103610001248FFF7B9FD00200F4908600322104847
:1036200001681048FFF7B0FD00200D490860042232
:103630000D4801680D48FFF7A7FD00200A49086002
:1036400010BD00000008004090812242008022420C
:1036500064000020E0020020680000201803002021
:103660006C00002050030020700000208803002020
:1036700008B501210420FDF785FD01214020FDF75B
:1036800081FD1C20ADF8000048208DF8030069463C
:103690003648FDF7BBFA0120ADF8000028208DF870
:1036A000030069463248FDF7B1FA08BD10B504467B
:1036B00014B101202F4908702E480078002838D016
:1036C00010212A48FDF735FB78B108212748FDF77E
:1036D00030FB50B104212548FDF72BFB28B1012117
:1036E0002348FDF726FB012823D142F21070FFF793
:1036F00016FC00201F49087010211C48FDF719FB1B
:1037000008B9012010BD08211848FDF712FB08B9BF
:103710000220F7E704211548FDF70BFB08B9032049
:10372000F0E701211248FDF704FB01281BD104201A
:10373000E8E710210D48FDF7FCFA012813D1082114
:103740000A48FDF7F6FA01280DD104210748FDF7D4
:10375000F0FA012807D101210548FDF7EAFA10B96E
:103760000120044908700020CCE700000018014047
:10377000000801408400002070B505460C4605F0A5
:10378000D0F8E62005F0F5F805F040F918B105F09D
:10379000E0F8012070BD284605F0EBF805F036F999
:1037A000204605F0E6F805F031F905F0D2F80020E2
:1037B000F0E710B5044614B1012C0AD104E0002151
:1037C000EF20FFF7D9FF04E00121EF20FFF7D4FF3E
:1037D00000BF00BF10BD70B5044605F0A2F8E6209A
:1037E00005F0C7F805F012F918B105F0B2F800209D
:1037F00070BD204605F0BDF805F008F905F091F818
:10380000E72005F0B6F805F001F905F0DEF8054609
:1038100005F035F905F09DF82846E9E710B505F003
:1038200080F8E62005F0A5F805F093F810BD10B576
:103830000A24FFF7F3FF41F28830FFF770FBFFF730
:10384000EDFF41F28830FFF76AFB0020FFF7B1FF80
:103850000020FFF7C0FF0446202C01D0002010BD3F
:103860000120FCE770B505F01FF9FFF7E0FF054602
:103870000DB9002070BD0020FFF79BFF00240AE077
:10388000F84A02EB44025178F64A12F81400FFF7A6
:1038900073FF601CC4B2332CF2D30020FFF789FF02
:1038A0000120E7E770B506460C46154605F039F8E5
:1038B000E62005F05EF805F0A9F818B105F049F822
:1038C000012070BD304605F054F805F09FF805F072
:1038D00028F8E72005F04DF805F098F80FE0012CE6
:1038E00005D105F072F8287005F0C9F804E005F07C
:1038F0006CF8287005F0A9F86D1C601E84B2002CCD
:10390000EDD105F026F80020DBE72DE9FE4300208D
:10391000029081468046FFF74CFF00240AE0D24A1D
:1039200002EB44025178D04A12F81400FFF724FF4A
:10393000601CC4B21E2CF2D30020FFF73AFF002413
:10394000EEE10020FFF7B2FE0546042D08D100216C
:103950004120FFF711FF00214220FFF70DFFE0E1BA
:1039600002AA02214320FFF79DFF0646002E74D1D4
:103970009DF808009DF8091040EA0127002F6CD03F
:10398000102F47D008DC012F10D0022F1BD0042F9E
:1039900026D0082F6FD130E0202F48D0402F53D0B1
:1039A000802F5FD0B7F5807F77D169E03121AF48B4
:1039B000FEF796FCAE48006808B9012000E0002040
:1039C000AB49086072E03221A848FEF789FCA8489C
:1039D000006808B9012000E00020A549086065E002
:1039E0003321A248FEF77CFCA148006808B90120F9
:1039F00000E000209E49086058E034219B48FEF713
:103A00006FFC9B48006808B9012000E0002098493D
:103A100008604BE037219548FEF762FC9448006847
:103A200008B9012000E00020914908603EE03821FB
:103A30008E48FEF755FC8E48006808B9012000E06A
:103A400000208B49086031E036218848FEF748FCA9
:103A50008748006810B9012001E028E0002084496F
:103A6000086023E035218148FEF73AFC8048006871
:103A700010B9012001E010E000207D49086015E048
:103A800039217A48FEF72CFC7948006808B90120F2
:103A900000E000207649086008E07548006808B931
:103AA000012000E000207249086000BF00BF4CF216
:103AB0005030FFF734FA601CC4B2052C08D16D48B1
:103AC000006808B9012000E000206A49086000246D
:103AD00005F0EEFA0546002D73D0102003232A4688
:103AE00082210090562004F02AFE1020032300902B
:103AF000614802789621562004F021FE622D37D0CD
:103B000017DC302D79D00BDC102D6DD003DC4DB3DC
:103B1000022D29D133E0182D79D0222DF9D13FE0A3
:103B2000382D71D0422D70D0522D6FD05A2DF0D13A
:103B300089E0A82D3ED00CDC902D43D004DC682D0C
:103B400043D07A2DE5D169E0982D45D0A22DE0D162
:103B50000BE0B02D4AD0C22D1BD0E02D27D0E22D96
:103B6000D7D113E00FF21418C7E00FF21818C4E011
:103B70000FF2181831213D48FEF7B2FBBDE00FF2FD
:103B8000101830213948FEF7ABFBB6E00FF20818E9
:103B9000B3E00FF2101834213448FEF7A1FBACE07B
:103BA0000FF2081833213148FEF79AFBA5E00FF217
:103BB0000418A2E00FF2041832212C48FEF790FB03
:103BC0009BE0ADE00FF2FC0897E00FF20018312106
:103BD0002648FEF785FB90E00FF2F40832212348D7
:103BE000FEF77EFB89E008E01FE010E00FF2E4083A
:103BF00033211E48FEF774FB7FE00FF2DC0834210E
:103C00001A48FEF76DFB78E016E023E072E00FF251
:103C1000CC0835211548FEF763FB6EE00FF2C008B3
:103C200036211248FEF75CFB67E00FF2B808372137
:103C30000E48FEF755FB60E00FF2AC0838210B4848
:103C4000FEF74EFB59E00FF2A40839210748FEF7B2
:103C500047FB52E00FF2980830210448FEF740FB82
:103C60004BE00000E69F000892A00008004C0040D6
:103C70009401234294812142940000204552524FE6
:103C800052000000504F57455200000055500000B0
:103C9000504C415900000000414C49454E54454BA1
:103CA0000000000052494748540000004C4546546B
:103CB00000000000564F4C2D00000000444F574EAE
:103CC00000000000564F4C2B0000000031000000A7
:103CD0003200000033000000340000003500000016
:103CE00036000000370000003800000039000000F6
:103CF000300000000FF2201800BF00BF4FF6FF7029
:103D0000BA23B422AA210090562004F034FB1020DC
:103D10000346C822AA21CDE90008562004F0C7FDB9
:103D20000FE600BFBDE8FE83F8B500200090002636
:103D30000027FFF73EFD00240AE0394A02EB440267
:103D40005178374A12F81400FFF716FD601CC4B210
:103D5000232CF2D30020FFF72CFD002434E00020B8
:103D6000FFF7A4FC0546042D00D12EE0B020FFF79C
:103D700032FD0646B120FFF72EFD8DF80000B2207F
:103D8000FFF729FD8DF801009DF800009DF8011056
:103D900001F00F0140EA0127314622A005F0BAFCEC
:103DA000394626A005F0B6FC2848FFF7B8F8601C95
:103DB000C4B2052C08D12648006808B9012000E0EB
:103DC0000020234908600024C9E700BFF8BD002592
:103DD00020E00020FFF76AFC044654B1012C04D017
:103DE000022C05D1FFF791FD02E0FFF79DFF00BF18
:103DF00000BF4CF25030FFF792F8681CC5B2052D99
:103E000008D11348006808B9012000E000201049DB
:103E100008600025DDE7000044454C45544500009E
:103E20004CA000086F626A5F6272696768746E65B1
:103E300073733A2025640D0A000000006F626A5F08
:103E400073697A653A2025640D0A0000A086010096
:103E500094812142F74908807047F649891C0880FF
:103E6000704708B5F348801C00880090BDF800003A
:103E700008BDF04A1080921C1180704710B50446AE
:103E80002046FFF7E7FF0520FFF749F8FFF7E9FFB6
:103E900010BDE9480089E74908807047E549891C59
:103EA0000880704730B5014601F01F04C1F3451387
:103EB000CA0AE50205EB43151544A8B230BD00BFA0
:103EC0000100A0F10102D0B2FAD1704710B503464B
:103ED0000C46D948808849F24131884205D0D648FD
:103EE000808845F21031884214D1D3494889FFF7C0
:103EF000B1FF1812FFF7B1FFD8B2FFF7AEFFCE49FE
:103F00008889FFF7A7FF2012FFF7A7FFE0B2FFF7AE
:103F1000A4FFABE0C848808846F6040188421DD162
:103F2000C5488079012804D1C3480088401EC01AC2
:103F300083B2C1494889FFF78DFF1812FFF78DFF43
:103F4000D8B2FFF78AFFBC498889FFF783FF2012A8
:103F5000FFF783FFE0B2FFF780FF87E0B648808875
:103F600041F66311884247D1B3488079A8B9B24875
:103F70000088401EC01A83B2AF494889FFF76AFF24
:103F80000020FFF76AFF0020FFF767FF1812FFF716
:103F900064FFD8B2FFF761FF16E0A7494889FFF731
:103FA00059FF1812FFF759FFD8B2FFF756FFA24981
:103FB0000988491EC1F30F20FFF74FFF9E4909787A
:103FC000491EC8B2FFF749FF9B498889FFF742FFA6
:103FD0002012FFF742FFE0B2FFF73FFF9649498802
:103FE000491EC1F30F20FFF738FF93498978491E16
:103FF000C8B2FFF732FF39E08F48808845F2105190
:10400000884220D18C494889FFF724FF1812FFF716
:1040100024FF89494989491C88B2FFF71BFFD8B2A0
:10402000FFF71BFF84498889FFF714FF2012FFF771
:1040300014FF81498989491C88B2FFF70BFFE0B260
:10404000FFF70BFF12E07C488079012804D17A4801
:104050000088401EC01A83B2774948891946FFF785
:1040600008FF754988892146FFF703FF10BD2DE938
:10407000F04105460E4600240027A0466E48008801
:10408000A84203DD6C484088B04202DC0020BDE855
:10409000F08131462846FFF719FF6748808849F2CA
:1040A0004131884211D06448808846F60401884234
:1040B0000BD06148808845F21031884205D05E48B7
:1040C000808841F66311884203D12E20FFF7C2FE9B
:1040D0000DE05948808845F21051884204D14FF4D0
:1040E0003850FFF7B7FE02E02220FFF7B3FE524838
:1040F000808849F22031884202D10220FFF7DFFE9A
:10410000FFF7AFFE04464C48808841F663118842B1
:1041100001D12046BBE70220FFF7D1FEFFF7A1FE49
:1041200004464548808849F2413188420BD04248D4
:10413000808845F21031884205D03F48808845F29A
:10414000105188420AD10220FFF7B9FEFFF789FE1D
:104150008046E7B24FF6FF7000EA072736488088AE
:1041600049F22531884216D03348808844F23551CF
:10417000884210D030488088091F88420BD02E48D2
:1041800080884BF20551884205D02B4880884CF23C
:104190000551884201D1204679E72748808849F2B5
:1041A000413188420BD02448808845F21031884242
:1041B00005D02148808845F21051884207D1E0128D
:1041C000C002B91240EA411040EAE8205FE7204609
:1041D000FFF768FE5BE700B51748808849F2413178
:1041E000884211D01448808846F6040188420BD0DA
:1041F0001148808845F21031884205D00E488088E9
:1042000041F66311884203D12920FFF723FE0FE016
:104210000948808845F21051884204D14FF4245057
:10422000FFF718FE04E040F273110720FFF721FEAC
:1042300000BD0000FE07006CC003002000B5FD4873
:10424000808849F24131884211D0FA48808846F688
:10425000040188420BD0F748808845F2103188422B
:1042600005D0F448808841F66311884203D12820A4
:10427000FFF7F0FD0EE0EF48808845F210518842CC
:1042800004D14FF42050FFF7E5FD03E000210720A3
:10429000FFF7EFFD00BD70B5044600230026E5489A
:1042A000807901280BD1E348808846F604018842D2
:1042B00005D0E048808841F66311884208D1DD4886
:1042C0008079F0B9DB48808841F66311884218D1C3
:1042D000082C15D2DFE804F00406080A0C0E1012B0
:1042E00006240DE007240BE0042409E0052407E080
:1042F000012405E0002403E0032401E0022400BFC0
:1043000000BFCC48808849F24131884217D0C94863
:10431000808846F60401884211D0C648808845F25C
:10432000103188420BD0C348808845F21051884232
:1043300005D0C048808841F6631188427ED1082CA0
:104340001CD2DFE804F00406090C0F12151800BF98
:1043500014E043F0800311E043F040030EE043F02B
:10436000C0030BE043F0200308E043F0600305E0E6
:1043700043F0A00302E043F0E00300BF00BFAD48FC
:10438000808845F21051884202D14FF4585600E01F
:104390003626A848808845F2103188420DD0A548BD
:1043A000808845F21051884207D0A248808841F6A3
:1043B0006311884201D043F008039E48808846F686
:1043C0000401884201D143F0020319463046FFF749
:1043D00050FD9848808841F6631188421DD003F053
:1043E000200068B19348008892494988884214DACD
:1043F0009048058840888F490880084645800CE031
:104400008C4800888B494988884206DD89480588A0
:10441000408888490880084645808648808845F25B
:104420001051884254D183494889FFF713FD002079
:10443000FFF713FD7F494989491C00E077E088B206
:10444000FFF708FD0020FFF708FD7A494989891C1C
:1044500088B2FFF7FFFC77490988491EC1F30F2096
:10446000FFF7FBFC73494989C91C88B2FFF7F2FCCE
:1044700070490978491EC8B2FFF7EFFC6D49888979
:10448000FFF7E8FC0020FFF7E8FC6A498989491C2E
:1044900088B2FFF7DFFC0020FFF7DFFC6549898960
:1044A000891C88B2FFF7D6FC62494988491EC1F3CE
:1044B0000F20FFF7D2FC5F498989C91C88B2FFF73A
:1044C000C9FC5C498978491EC8B2FFF7C6FC55E0B3
:1044D00058494889FFF7BEFC0020FFF7BEFC0020CA
:1044E000FFF7BBFC53490988491EC1F30F20FFF7B2
:1044F000B4FC50490978491EC8B2FFF7AEFC4D49DB
:104500008889FFF7A7FC0020FFF7A7FC0020FFF732
:10451000A4FC48494988491EC1F30F20FFF79DFCC0
:1045200044498978491EC8B2FFF797FC26E0082C59
:104530001CD2DFE804F004070A0D0F12151843F02F
:10454000300313E043F0100310E043F020030DE0CC
:1045500000BF0BE043F0380308E043F0280305E018
:1045600043F0180302E043F0080300BF00BF032636
:1045700043F4805319463046FFF77BFC70BD30B5DD
:1045800004460D4629462046FFF7A0FCFFF781FCB4
:10459000294800882949088030BD30B503460C46BB
:1045A00015462448808849F24131884205D0214887
:1045B000808845F21031884214D11E494889FFF79E
:1045C00049FC1812FFF749FCD8B2FFF746FC19491D
:1045D0008889FFF73FFC2012FFF73FFCE0B2FFF7AE
:1045E0003CFC93E01348808845F21051884227D163
:1045F00010494889FFF72EFC1812FFF72EFC0D49D1
:104600004989491C88B2FFF725FCD8B2FFF725FC81
:1046100008498889FFF71EFC2012FFF71EFC054998
:104620008989491C88B2FFF715FCE0B2FFF715FC39
:104630006CE00000C0030020860000200008006C31
:10464000FC48808841F66311884228D1F948807976
:1046500020B9F8480088401EC01A83B2F54948893D
:10466000FFF7F8FB1812FFF7F8FBD8B2FFF7F5FBDE
:104670001812FFF7F2FBD8B2FFF7EFFBED4988897C
:10468000FFF7E8FB2012FFF7E8FBE0B2FFF7E5FBDE
:104690002012FFF7E2FBE0B2FFF7DFFB36E0E54870
:1046A000808846F6040188421DD1E24880790128BD
:1046B00004D1E0480088401EC01A83B2DD49488911
:1046C000FFF7C8FB1812FFF7C8FBD8B2FFF7C5FB0E
:1046D000D8498889FFF7BEFB2012FFF7BEFBE0B286
:1046E000FFF7BBFB12E0D3488079012804D1D14801
:1046F0000088401EC01A83B2CE4948891946FFF788
:10470000B8FBCC4988892146FFF7B3FBC94800892B
:10471000C9490880881C058030BD2DE9F047044652
:10472000BE20FFF797FB0520FFF797FB204604F01C
:1047300094FE07464FF06632C04B04F09CFD0546E0
:1047400004F0B7FE1FFA80F94846FFF786FB012008
:10475000FFF783FBFF20FFF780FB0020FFF77DFBC7
:104760000020FFF77AFBBDE8F08710B50446002C67
:1047700066D1B0498871F02008804FF4A07048805D
:104780000846808849F2413188420BD0A948808888
:1047900046F60401884205D0A648808845F21031CB
:1047A00088421AD12C20A34908812A2048812B2035
:1047B00088810846808846F60401884205D09D48D5
:1047C000808845F21031884206D14FF4A070994993
:1047D00008804FF4F0704880A1E09648808845F248
:1047E0001051884210D14FF43050924908814FF453
:1047F000285048814FF42C5088814FF4F070088085
:104800004FF4487048808AE08A48808841F66311F6
:1048100088420DD12C20874908812B2048812A20ED
:1048200088814FF4F07008804FF44870488076E03B
:1048300022208049088120204881212088816EE043
:1048400001207C4988714FF4A0700880F0204880D6
:104850000846808849F24131884205D075488088F1
:1048600045F21031884207D12C20724908812A2054
:1048700048812B2088813FE06E48808846F60401FD
:10488000884207D12C206B4908812B2048812A209F
:10489000888131E06748808845F21051884210D104
:1048A0004FF43050634908814FF4285048814FF449
:1048B0002C5088814FF4487008804FF4F070488085
:1048C0001AE05C48808841F6631188420DD12C20A3
:1048D000584908812A2048812B2088814FF448704C
:1048E00008804FF4F070488006E02220514908818A
:1048F00021204881202088814E48808846F6040186
:10490000884205D04B48808845F21031884206D154
:104910004FF4F070474908804FF4A07048800020A1
:10492000FFF7B9FC10BD2DE9F04F86B004460D46E7
:104930009046994604EB0800401E86B205EB09003C
:10494000401E87B23B48808849F24131884215D0E9
:104950003848808845F2103188420FD03548808829
:1049600046F60401884209D032488079012826D1D0
:104970003048808841F66311884220D12D4948890A
:10498000FFF768FA2012FFF768FAE0B2FFF765FA5E
:104990003012FFF762FAF0B2FFF75FFA2549888913
:1049A000FFF758FA2812FFF758FAE8B2FFF755FA5E
:1049B0003812FFF752FAF8B2FFF74FFABEE01D487F
:1049C000808841F6631188423AD11A480088A0EBEA
:1049D0000800001B84B205EB0900401E1FFA80F995
:1049E00014494889FFF736FA2012FFF736FAE0B289
:1049F000FFF733FA04EB0801491EC1F30F20FFF75C
:104A00002CFA04EB0801491EC8B2FFF726FA09493F
:104A10008889FFF71FFA2812FFF71FFAE8B2FFF79D
:104A20001CFA4FEA2920FFF718FA09F0FF00FFF7F8
:104A300014FA83E0C0030020FE07006C66660440A1
:104A4000FE48808845F21051884244D1FB4948898C
:104A5000FFF700FA2012FFF700FAF8494989491CCC
:104A600088B2FFF7F7F9E0B2FFF7F7F9F3494989A0
:104A7000891C88B2FFF7EEF93012FFF7EEF9EF4923
:104A80004989C91C88B2FFF7E5F9F0B2FFF7E5F9EB
:104A9000EA498889FFF7DEF92812FFF7DEF9E749CE
:104AA0008989491C88B2FFF7D5F9E8B2FFF7D5F933
:104AB000E2498989891C88B2FFF7CCF93812FFF7DF
:104AC000CCF9DE498989C91C88B2FFF7C3F9F8B26D
:104AD000FFF7C3F932E0D948807901280ED1AA4600
:104AE000BB46D6480088801B401E80B20190D34848
:104AF0000088001B401E80B2009003E0A246B3462F
:104B00000195009750200590512004905220039069
:104B10005320029051460598FFF7ABF95946049887
:104B2000FFF7A7F901990398FFF7A3F900990298F5
:104B3000FFF79FF929462046FFF7C8F906B0BDE800
:104B4000F08F70B504460026BC4805884088454370
:104B5000BA48808846F60401884216D1B748807961
:104B6000012812D10020B54988712A2048812B20C4
:104B7000888100210846FFF7A9F90120AF49887113
:104B80002B2048812A20888103E000210846FFF776
:104B90009DF9FFF77EF9002602E0A9480480761C03
:104BA000AE42FAD370BD00B59FB001210802FCF7F8
:104BB000DCFA01214FF4B470FCF7E4FA0120ADF8FF
:104BC000780010208DF87B0003208DF87A001EA954
:104BD0009C48FCF71BF84CF23370ADF878001820B5
:104BE0008DF87B0003208DF87A001EA99648FCF70B
:104BF0000DF84FF68070ADF8780018208DF87B0026
:104C000003208DF87A001EA99048FBF7FFFF41F2C0
:104C10000100ADF8780018208DF87B0003208DF896
:104C20007A001EA98A48FBF7F1FF012008900020B6
:104C300009900F200A9000200B900C900D900E9080
:104C400001900290032003900020049005900690AC
:104C5000079006200F9000201090119010201290C5
:104C60000020139015901490169017904FF48050D8
:104C70001890002019904FF480401A9000201B904B
:104C800008A81C9001A81D900FA8FBF7A5FC012106
:104C90000620FBF709FE4CF25030FEF740F90020E9
:104CA000FFF7ECF86549888008468088FF280ADB12
:104CB000084680884FF6FF71884204D05F4880889C
:104CC000B0F5134F7ED1D320FFF7C4F8FFF7C9F832
:104CD0005A498880FFF7C5F858498880FFF7C1F81E
:104CE00056498880084680884FF6FF7101EA002007
:104CF00052498880FFF7B5F85049898808434F49E1
:104D000088800846808849F2413188425AD0BF20C5
:104D1000FFF7A0F8FFF7A5F848498880FFF7A1F84A
:104D200046498880FFF79DF844498880FFF799F845
:104D300042498880084680884FF6FF7101EA0020CA
:104D40003E498880FFF78DF83C49898808433B49F4
:104D500088800846808846F60401884232D0D420F4
:104D6000FFF778F8FFF77DF834498880FFF779F886
:104D700032498880FFF775F8304988800846808876
:104D80004FF6FF7101EA00202C498880FFF769F88F
:104D90002A4989880843294988800846808845F23D
:104DA0001031884263D04FF45A40FFF753F8FFF7B1
:104DB00058F8224988804FF45B40FFF74BF8FFF723
:104DC00050F800E053E01D498880084680884FF67F
:104DD000FF7101EA0020194988804FF45C40FFF719
:104DE00039F8FFF73EF81549898808431349888048
:104DF00008468088B0F5004F02D145F210508880F7
:104E00000E48808845F21051884230D0A120FFF72B
:104E100021F8FFF726F809498880FFF722F80749AB
:104E20008880084680884FF6FF7101EA0020034918
:104E30008880FFF716F8014989880BE0C00300203D
:104E40000008006C000C01400014014000180140F3
:104E5000002001400843FE4988800846808845F2CA
:104E60006171884203D141F66310F9498880F8489E
:104E70008188F8A004F04EFCF548808849F2413161
:104E800088427CD1CF20FEF7E5FF0020FEF7E5FF4A
:104E9000C120FEF7E2FF3020FEF7DFFFED20FEF736
:104EA000D9FF6420FEF7D9FF0320FEF7D6FF1220BA
:104EB000FEF7D3FF8120FEF7D0FFE820FEF7CAFF00
:104EC0008520FEF7CAFF1020FEF7C7FF7A20FEF705
:104ED000C4FFCB20FEF7BEFF3920FEF7BEFF2C201B
:104EE000FEF7BBFF0020FEF7B8FF3420FEF7B5FF4A
:104EF0000220FEF7B2FFF720FEF7ACFF2020FEF7FE
:104F0000ACFFEA20FEF7A6FF0020FEF7A6FF002078
:104F1000FEF7A3FFC020FEF79DFF1B20FEF79DFFBD
:104F2000C120FEF797FF0120FEF797FFC520FEF78F
:104F300091FF3020FEF791FF3020FEF78EFFC72053
:104F4000FEF788FFB720FEF788FF3620FEF782FFC6
:104F50004820FEF782FF3A20FEF77CFF5520FEF73F
:104F60007CFFB120FEF776FF0020FEF776FF1A20C7
:104F7000FEF773FFB620FEF76DFF0A2000E099E010
:104F8000FEF76BFFA220FEF768FFF220FEF762FF3C
:104F90000020FEF762FF2620FEF75CFF0120FEF7EF
:104FA0005CFFE020FEF756FF0F20FEF756FF2A2099
:104FB000FEF753FF2820FEF750FF0820FEF74DFFB5
:104FC0000E20FEF74AFF0820FEF747FF5420FEF7A9
:104FD00044FFA920FEF741FF4320FEF73EFF0A20D1
:104FE000FEF73BFF0F20FEF738FF0020FEF735FFEE
:104FF0000020FEF732FF0020FEF72FFF0020FEF713
:105000002CFFE120FEF726FF0020FEF726FF1520EB
:10501000FEF723FF1720FEF720FF0720FEF71DFFF6
:105020001120FEF71AFF0620FEF717FF2B20FEF7D0
:1050300014FF5620FEF711FF3C20FEF70EFF05205F
:10504000FEF70BFF1020FEF708FF0F20FEF705FF0D
:105050003F20FEF702FF3F20FEF7FFFE0F20FEF786
:10506000FCFE2B20FEF7F6FE0020FEF7F6FE0020E9
:10507000FEF7F3FE0120FEF7F0FE3F20FEF7EDFE07
:105080002A20FEF7E7FE0020FEF7E7FE0020FEF7ED
:10509000E4FE0020FEF7E1FEEF20FEF7DEFE112029
:1050A000FEF7D8FE6F48FDF73AFF2920FEF7D2FE43
:1050B00003F055B96648808846F6040188427DD1E0
:1050C0001120FEF7C7FE44F62060FDF728FFD02030
:1050D000FEF7C0FE0720FEF7C0FE4220FEF7BDFE31
:1050E0001D20FEF7BAFED120FEF7B4FE0020FEF729
:1050F000B4FE1A20FEF7B1FE0920FEF7AEFED22064
:10510000FEF7A8FE0120FEF7A8FE2220FEF7A5FE6E
:10511000C020FEF79FFE1020FEF79FFE3B20FEF70B
:105120009CFE0020FEF799FE0220FEF796FE11205D
:10513000FEF793FEC520FEF78DFE0320FEF78DFEE1
:10514000C820FEF787FE0020FEF787FE2520FEF729
:1051500084FE2120FEF781FE0520FEF77EFE002062
:10516000FEF77BFE0A20FEF778FE6520FEF775FE4F
:105170002520FEF772FE7720FEF76FFE5020FEF727
:105180006CFE0F20FEF769FE0020FEF766FEF82099
:10519000FEF760FE0120FEF760FEFE20FEF75AFEDD
:1051A0000020FEF75AFE0220FEF757FE2020FEF7F1
:1051B00051FE3620FEF74EFE082000E02CE0FEF700
:1051C0004CFE3A20FEF746FE5520FEF746FE2B2009
:1051D000FEF740FE0020FEF740FE0020FEF73DFEF9
:1051E0000120FEF73AFE3F20FEF737FE2A20FEF7A9
:1051F00031FE0020FEF731FE0020FEF72EFE0120DA
:10520000FEF72BFEDF20FEF728FE1648FDF787FE8F
:105210002920FEF71FFE4BE70D48808845F210312C
:10522000884240F08787ED20FEF714FE0120FEF74C
:1052300014FEFE20FEF711FEEE20FEF70BFEDE2030
:10524000FEF70BFE2120FEF708FEF1200CE0000027
:10525000C0030020204C43442049443A25780D0ADD
:1052600000000000C0D40100FEF7F4FD0120FEF7AD
:10527000F4FDDF20FEF7EEFD1020FEF7EEFDC4206A
:10528000FEF7E8FD8F20FEF7E8FDC620FEF7E2FD01
:105290000020FEF7E2FDE220FEF7DFFDE220FEF750
:1052A000DCFDE220FEF7D9FDBF20FEF7D3FDAA20EA
:1052B000FEF7D3FDB020FEF7CDFD0D20FEF7CDFDAE
:1052C0000020FEF7CAFD0D20FEF7C7FD0020FEF707
:1052D000C4FD1120FEF7C1FD0020FEF7BEFD192020
:1052E000FEF7BBFD0020FEF7B8FD2120FEF7B5FD5F
:1052F0000020FEF7B2FD2D20FEF7AFFD0020FEF7E7
:10530000ACFD3D20FEF7A9FD0020FEF7A6FD5D20C7
:10531000FEF7A3FD0020FEF7A0FD5D20FEF79DFD3A
:105320000020FEF79AFDB120FEF794FD8020FEF7E5
:1053300094FD0020FEF791FD8B20FEF78EFD0020EE
:10534000FEF78BFD9620FEF788FD0020FEF785FD19
:10535000B220FEF77FFD0020FEF77FFD0020FEF764
:105360007CFD0220FEF779FD0020FEF776FD03208C
:10537000FEF773FD0020FEF770FDB320FEF76AFD17
:105380000020FEF76AFD0020FEF767FD0020FEF713
:1053900064FD0020FEF761FD0020FEF75EFD0020A9
:1053A000FEF75BFD0020FEF758FD0020FEF755FDDF
:1053B0000020FEF752FD0020FEF74FFD0020FEF713
:1053C0004CFD0020FEF749FD0020FEF746FD0020C1
:1053D000FEF743FD0020FEF740FD0020FEF73DFDF7
:1053E0000020FEF73AFD0020FEF737FD0020FEF713
:1053F00034FD0020FEF731FD0020FEF72EFD0020D9
:10540000FEF72BFD0020FEF728FD0020FEF725FD0E
:10541000B420FEF71FFD8B20FEF71FFD0020FEF7D6
:105420001CFD9620FEF719FD0020FEF716FDA120B9
:10543000FEF713FD0020FEF710FDB520FEF70AFD74
:105440000220FEF70AFD0020FEF707FD0320FEF70D
:1054500004FD0020FEF701FD0420FEF7FEFC002005
:10546000FEF7FBFCB620FEF7F5FC0020FEF7F5FC8E
:105470000020FEF7F2FCB720FEF7ECFC0020FEF760
:10548000ECFC0020FEF7E9FC3F20FEF7E6FC0020E4
:10549000FEF7E3FC5E20FEF7E0FC0020FEF7DDFCFB
:1054A0006420FEF7DAFC0020FEF7D7FC8C20FEF724
:1054B000D4FC0020FEF7D1FCAC20FEF7CEFC00208F
:1054C000FEF7CBFCDC20FEF7C8FC0020FEF7C5FC95
:1054D0007020FEF7C2FC0020FEF7BFFC9020FEF714
:1054E000BCFC0020FEF7B9FCEB20FEF7B6FC002068
:1054F000FEF7B3FCDC20FEF7B0FC0020FEF7ADFCAD
:10550000B820FEF7A7FC0020FEF7A7FC0020FEF75E
:10551000A4FC0020FEF7A1FC0020FEF79EFC00206A
:10552000FEF79BFC0020FEF798FC0020FEF795FCA0
:105530000020FEF792FCBA20FEF78CFC2420FEF738
:105540008CFC0020FEF789FC0020FEF786FC002082
:10555000FEF783FCC120FEF77DFC2020FEF77DFCDA
:105560000020FEF77AFC5420FEF777FC0020FEF7BF
:1055700074FCFF20FEF771FC0020FEF76EFCC220D9
:10558000FEF768FC0A20FEF768FC0020FEF765FCC9
:105590000420FEF762FC0020FEF75FFCC320FEF74C
:1055A00059FC3C20FEF759FC0020FEF756FC3A203F
:1055B000FEF753FC0020FEF750FC3920FEF74DFCAF
:1055C0000020FEF74AFC3720FEF747FC0020FEF7DC
:1055D00044FC3C20FEF741FC0020FEF73EFC362058
:1055E000FEF73BFC0020FEF738FC3220FEF735FCCE
:1055F0000020FEF732FC2F20FEF72FFC0020FEF7E4
:105600002CFC2C20FEF729FC0020FEF726FC29208C
:10561000FEF723FC0020FEF720FC2620FEF71DFCF1
:105620000020FEF71AFC2420FEF717FC0020FEF7EE
:1056300014FC2420FEF711FC0020FEF70EFC2320B2
:10564000FEF70BFC0020FEF708FC3C20FEF705FCF3
:105650000020FEF702FC3620FEF7FFFB0020FEF7DD
:10566000FCFB3220FEF7F9FB0020FEF7F6FB2F20B3
:10567000FEF7F3FB0020FEF7F0FB2C20FEF7EDFB1E
:105680000020FEF7EAFB2920FEF7E7FB0020FEF7EB
:10569000E4FB2620FEF7E1FB0020FEF7DEFB2420E2
:1056A000FEF7DBFB0020FEF7D8FB2420FEF7D5FB3E
:1056B0000020FEF7D2FB2320FEF7CFFB0020FEF7F1
:1056C000CCFBC420FEF7C6FB6220FEF7C6FB002021
:1056D000FEF7C3FB0520FEF7C0FB0020FEF7BDFB75
:1056E0008420FEF7BAFB0020FEF7B7FBF020FEF7A0
:1056F000B4FB0020FEF7B1FB1820FEF7AEFB002044
:10570000FEF7ABFBA420FEF7A8FB0020FEF7A5FBED
:105710001820FEF7A2FB0020FEF79FFB5020FEF7AB
:105720009CFB0020FEF799FB0C20FEF796FB002067
:10573000FEF793FB1720FEF790FB0020FEF78DFB92
:105740009520FEF78AFB0020FEF787FBF320FEF78B
:1057500084FB0020FEF781FBE620FEF77EFB0020A5
:10576000FEF77BFBC520FEF775FB3220FEF775FBCD
:105770000020FEF772FB4420FEF76FFB0020FEF7CF
:105780006CFB6520FEF769FB0020FEF766FB7620C8
:10579000FEF763FB0020FEF760FB8820FEF75DFB51
:1057A0000020FEF75AFBC620FEF754FB2020FEF730
:1057B00054FB0020FEF751FB1720FEF74EFB0020A4
:1057C000FEF74BFB0120FEF748FB0020FEF745FBF0
:1057D000C720FEF73FFB0020FEF73FFB0020FEF74F
:1057E0003CFB0020FEF739FB0020FEF736FBC8200B
:1057F000FEF730FB0020FEF730FB0020FEF72DFB0C
:105800000020FEF72AFB0020FEF727FBC920FEF749
:1058100021FB0020FEF721FB0020FEF71EFB0020ED
:10582000FEF71BFB0020FEF718FB0020FEF715FB20
:105830000020FEF712FB0020FEF70FFB0020FEF712
:105840000CFB0020FEF709FB0020FEF706FB002002
:10585000FEF703FB0020FEF700FB0020FEF7FDFA39
:105860000020FEF7FAFA0020FEF7F7FA0020FEF714
:10587000F4FAE020FEF7EEFA1620FEF7EEFA00202A
:10588000FEF7EBFA1C20FEF7E8FA0020FEF7E5FA37
:105890002120FEF7E2FA0020FEF7DFFA3620FEF7BD
:1058A000DCFA0020FEF7D9FA4620FEF7D6FA0020EF
:1058B000FEF7D3FA5220FEF7D0FA0020FEF7CDFA19
:1058C0006420FEF7CAFA0020FEF7C7FA7A20FEF736
:1058D000C4FA0020FEF7C1FA8B20FEF7BEFA0020C2
:1058E000FEF7BBFA9920FEF7B8FA0020FEF7B5FAEA
:1058F000A820FEF7B2FA0020FEF7AFFAB920FEF7B3
:10590000ACFA0020FEF7A9FAC420FEF7A6FA0020A0
:10591000FEF7A3FACA20FEF7A0FA0020FEF79DFAD0
:10592000D220FEF79AFA0020FEF797FAD920FEF768
:1059300094FA0020FEF791FAE020FEF78EFA00209C
:10594000FEF78BFAF320FEF788FA0020FEF785FABF
:10595000E120FEF77FFA1620FEF77FFA0020FEF71F
:105960007CFA1C20FEF779FA0020FEF776FA222056
:10597000FEF773FA0020FEF770FA3620FEF76DFA94
:105980000020FEF76AFA4520FEF767FA0020FEF7CE
:1059900064FA5220FEF761FA0020FEF75EFA6420F6
:1059A000FEF75BFA0020FEF758FA7A20FEF755FA68
:1059B0000020FEF752FA8B20FEF74FFA0020FEF788
:1059C0004CFA9920FEF749FA0020FEF746FAA82083
:1059D000FEF743FA0020FEF740FAB920FEF73DFA41
:1059E0000020FEF73AFAC420FEF737FA0020FEF74F
:1059F00034FACA20FEF731FA0020FEF72EFAD22040
:105A0000FEF72BFA0020FEF728FAD820FEF725FA39
:105A10000020FEF722FAE020FEF71FFA0020FEF732
:105A20001CFAF320FEF719FA0020FEF716FAE2201E
:105A3000FEF710FA0520FEF710FA0020FEF70DFA27
:105A40000B20FEF70AFA0020FEF707FA1B20FEF7EC
:105A500004FA0020FEF701FA3420FEF7FEF90020D8
:105A6000FEF7FBF94420FEF7F8F90020FEF7F5F900
:105A70004F20FEF7F2F90020FEF7EFF96120FEF764
:105A8000ECF90020FEF7E9F97920FEF7E6F90020AD
:105A9000FEF7E3F98820FEF7E0F90020FEF7DDF9D4
:105AA0009720FEF7DAF90020FEF7D7F9A620FEF7D7
:105AB000D4F90020FEF7D1F9B720FEF7CEF9002087
:105AC000FEF7CBF9C220FEF7C8F90020FEF7C5F9B2
:105AD000C720FEF7C2F90020FEF7BFF9D120FEF77C
